{
  "_format": "hh-sol-artifact-1",
  "contractName": "webThreeSales",
  "sourceName": "contracts/webThreeSales.sol",
  "abi": [
    {
      "inputs": [],
      "stateMutability": "nonpayable",
      "type": "constructor"
    },
    {
      "inputs": [],
      "name": "gerOrders",
      "outputs": [
        {
          "components": [
            {
              "internalType": "string",
              "name": "api_id",
              "type": "string"
            },
            {
              "internalType": "uint256",
              "name": "delivery_day",
              "type": "uint256"
            },
            {
              "internalType": "address",
              "name": "worker_address",
              "type": "address"
            },
            {
              "internalType": "string",
              "name": "title",
              "type": "string"
            },
            {
              "internalType": "string",
              "name": "plan_title",
              "type": "string"
            },
            {
              "internalType": "uint256",
              "name": "price",
              "type": "uint256"
            },
            {
              "internalType": "string",
              "name": "plan_desc",
              "type": "string"
            },
            {
              "internalType": "string",
              "name": "status",
              "type": "string"
            },
            {
              "internalType": "string",
              "name": "desc",
              "type": "string"
            },
            {
              "internalType": "bool",
              "name": "accepted",
              "type": "bool"
            },
            {
              "internalType": "uint256",
              "name": "accepted_at",
              "type": "uint256"
            },
            {
              "internalType": "uint256",
              "name": "ordered_at",
              "type": "uint256"
            }
          ],
          "internalType": "struct webThreeSales.Order[]",
          "name": "",
          "type": "tuple[]"
        }
      ],
      "stateMutability": "view",
      "type": "function"
    },
    {
      "inputs": [],
      "name": "getAddresses",
      "outputs": [
        {
          "internalType": "address[]",
          "name": "",
          "type": "address[]"
        }
      ],
      "stateMutability": "view",
      "type": "function"
    },
    {
      "inputs": [],
      "name": "getOrdered",
      "outputs": [
        {
          "components": [
            {
              "internalType": "string",
              "name": "api_id",
              "type": "string"
            },
            {
              "internalType": "uint256",
              "name": "delivery_day",
              "type": "uint256"
            },
            {
              "internalType": "address",
              "name": "worker_address",
              "type": "address"
            },
            {
              "internalType": "string",
              "name": "title",
              "type": "string"
            },
            {
              "internalType": "string",
              "name": "plan_title",
              "type": "string"
            },
            {
              "internalType": "uint256",
              "name": "price",
              "type": "uint256"
            },
            {
              "internalType": "string",
              "name": "plan_desc",
              "type": "string"
            },
            {
              "internalType": "string",
              "name": "status",
              "type": "string"
            },
            {
              "internalType": "string",
              "name": "desc",
              "type": "string"
            },
            {
              "internalType": "bool",
              "name": "accepted",
              "type": "bool"
            },
            {
              "internalType": "uint256",
              "name": "accepted_at",
              "type": "uint256"
            },
            {
              "internalType": "uint256",
              "name": "ordered_at",
              "type": "uint256"
            }
          ],
          "internalType": "struct webThreeSales.Order[]",
          "name": "",
          "type": "tuple[]"
        }
      ],
      "stateMutability": "view",
      "type": "function"
    },
    {
      "inputs": [
        {
          "internalType": "string",
          "name": "api_id",
          "type": "string"
        },
        {
          "internalType": "uint256",
          "name": "delivery_day",
          "type": "uint256"
        },
        {
          "internalType": "address",
          "name": "worker_address",
          "type": "address"
        },
        {
          "internalType": "string",
          "name": "order_title",
          "type": "string"
        },
        {
          "internalType": "string",
          "name": "order_desc",
          "type": "string"
        },
        {
          "internalType": "string",
          "name": "plan_title",
          "type": "string"
        },
        {
          "internalType": "string",
          "name": "plan_desc",
          "type": "string"
        },
        {
          "internalType": "uint256",
          "name": "plan_price",
          "type": "uint256"
        }
      ],
      "name": "postOrder",
      "outputs": [
        {
          "components": [
            {
              "internalType": "string",
              "name": "api_id",
              "type": "string"
            },
            {
              "internalType": "uint256",
              "name": "delivery_day",
              "type": "uint256"
            },
            {
              "internalType": "address",
              "name": "worker_address",
              "type": "address"
            },
            {
              "internalType": "string",
              "name": "title",
              "type": "string"
            },
            {
              "internalType": "string",
              "name": "plan_title",
              "type": "string"
            },
            {
              "internalType": "uint256",
              "name": "price",
              "type": "uint256"
            },
            {
              "internalType": "string",
              "name": "plan_desc",
              "type": "string"
            },
            {
              "internalType": "string",
              "name": "status",
              "type": "string"
            },
            {
              "internalType": "string",
              "name": "desc",
              "type": "string"
            },
            {
              "internalType": "bool",
              "name": "accepted",
              "type": "bool"
            },
            {
              "internalType": "uint256",
              "name": "accepted_at",
              "type": "uint256"
            },
            {
              "internalType": "uint256",
              "name": "ordered_at",
              "type": "uint256"
            }
          ],
          "internalType": "struct webThreeSales.Order",
          "name": "",
          "type": "tuple"
        }
      ],
      "stateMutability": "nonpayable",
      "type": "function"
    }
  ],
  "bytecode": "0x608060405234801561001057600080fd5b5033600160006101000a81548173ffffffffffffffffffffffffffffffffffffffff021916908373ffffffffffffffffffffffffffffffffffffffff160217905550612129806100616000396000f3fe608060405234801561001057600080fd5b506004361061004c5760003560e01c806309f20171146100515780631c15f1ee14610081578063a39fac121461009f578063dd66cb26146100bd575b600080fd5b61006b60048036038101906100669190611874565b6100db565b6040516100789190611d95565b60405180910390f35b61008961043b565b6040516100969190611d73565b60405180910390f35b6100a76110e9565b6040516100b49190611d51565b60405180910390f35b6100c5611177565b6040516100d29190611d73565b60405180910390f35b6100e36116c6565b60006040518061018001604052808b81526020018a81526020018973ffffffffffffffffffffffffffffffffffffffff1681526020018881526020018681526020018481526020018581526020016040518060400160405280600f81526020017f776169742e666f722e61636365707400000000000000000000000000000000008152508152602001878152602001600015158152602001600081526020014281525090506000803373ffffffffffffffffffffffffffffffffffffffff1673ffffffffffffffffffffffffffffffffffffffff1681526020019081526020016000208190806001815401808255809150506001900390600052602060002090600c0201600090919091909150600082015181600001908051906020019061020c92919061173f565b506020820151816001015560408201518160020160006101000a81548173ffffffffffffffffffffffffffffffffffffffff021916908373ffffffffffffffffffffffffffffffffffffffff160217905550606082015181600301908051906020019061027a92919061173f565b50608082015181600401908051906020019061029792919061173f565b5060a0820151816005015560c08201518160060190805190602001906102be92919061173f565b5060e08201518160070190805190602001906102db92919061173f565b506101008201518160080190805190602001906102f992919061173f565b506101208201518160090160006101000a81548160ff02191690831515021790555061014082015181600a015561016082015181600b015550506103c33360028054806020026020016040519081016040528092919081815260200182805480156103b957602002820191906000526020600020905b8160009054906101000a900473ffffffffffffffffffffffffffffffffffffffff1673ffffffffffffffffffffffffffffffffffffffff168152602001906001019080831161036f575b5050505050611618565b61042b576002339080600181540180825580915050600190039060005260206000200160009091909190916101000a81548173ffffffffffffffffffffffffffffffffffffffff021916908373ffffffffffffffffffffffffffffffffffffffff1602179055505b8091505098975050505050505050565b60606000805b600280549050811015610a0c5760008060006002848154811061048d577f4e487b7100000000000000000000000000000000000000000000000000000000600052603260045260246000fd5b9060005260206000200160009054906101000a900473ffffffffffffffffffffffffffffffffffffffff1673ffffffffffffffffffffffffffffffffffffffff1673ffffffffffffffffffffffffffffffffffffffff168152602001908152602001600020805480602002602001604051908101604052809291908181526020016000905b8282101561094a57838290600052602060002090600c02016040518061018001604052908160008201805461054690611f7b565b80601f016020809104026020016040519081016040528092919081815260200182805461057290611f7b565b80156105bf5780601f10610594576101008083540402835291602001916105bf565b820191906000526020600020905b8154815290600101906020018083116105a257829003601f168201915b50505050508152602001600182015481526020016002820160009054906101000a900473ffffffffffffffffffffffffffffffffffffffff1673ffffffffffffffffffffffffffffffffffffffff1673ffffffffffffffffffffffffffffffffffffffff16815260200160038201805461063890611f7b565b80601f016020809104026020016040519081016040528092919081815260200182805461066490611f7b565b80156106b15780601f10610686576101008083540402835291602001916106b1565b820191906000526020600020905b81548152906001019060200180831161069457829003601f168201915b505050505081526020016004820180546106ca90611f7b565b80601f01602080910402602001604051908101604052809291908181526020018280546106f690611f7b565b80156107435780601f1061071857610100808354040283529160200191610743565b820191906000526020600020905b81548152906001019060200180831161072657829003601f168201915b505050505081526020016005820154815260200160068201805461076690611f7b565b80601f016020809104026020016040519081016040528092919081815260200182805461079290611f7b565b80156107df5780601f106107b4576101008083540402835291602001916107df565b820191906000526020600020905b8154815290600101906020018083116107c257829003601f168201915b505050505081526020016007820180546107f890611f7b565b80601f016020809104026020016040519081016040528092919081815260200182805461082490611f7b565b80156108715780601f1061084657610100808354040283529160200191610871565b820191906000526020600020905b81548152906001019060200180831161085457829003601f168201915b5050505050815260200160088201805461088a90611f7b565b80601f01602080910402602001604051908101604052809291908181526020018280546108b690611f7b565b80156109035780601f106108d857610100808354040283529160200191610903565b820191906000526020600020905b8154815290600101906020018083116108e657829003601f168201915b505050505081526020016009820160009054906101000a900460ff16151515158152602001600a8201548152602001600b8201548152505081526020019060010190610512565b50505050905060005b81518110156109f7573373ffffffffffffffffffffffffffffffffffffffff168282815181106109ac577f4e487b7100000000000000000000000000000000000000000000000000000000600052603260045260246000fd5b60200260200101516040015173ffffffffffffffffffffffffffffffffffffffff1614156109e4576001846109e19190611e9b565b93505b80806109ef90611fde565b915050610953565b50508080610a0490611fde565b915050610441565b5060008167ffffffffffffffff811115610a4f577f4e487b7100000000000000000000000000000000000000000000000000000000600052604160045260246000fd5b604051908082528060200260200182016040528015610a8857816020015b610a756116c6565b815260200190600190039081610a6d5790505b5090506000805b6002805490508110156110df57600080600060028481548110610adb577f4e487b7100000000000000000000000000000000000000000000000000000000600052603260045260246000fd5b9060005260206000200160009054906101000a900473ffffffffffffffffffffffffffffffffffffffff1673ffffffffffffffffffffffffffffffffffffffff1673ffffffffffffffffffffffffffffffffffffffff168152602001908152602001600020805480602002602001604051908101604052809291908181526020016000905b82821015610f9857838290600052602060002090600c020160405180610180016040529081600082018054610b9490611f7b565b80601f0160208091040260200160405190810160405280929190818152602001828054610bc090611f7b565b8015610c0d5780601f10610be257610100808354040283529160200191610c0d565b820191906000526020600020905b815481529060010190602001808311610bf057829003601f168201915b50505050508152602001600182015481526020016002820160009054906101000a900473ffffffffffffffffffffffffffffffffffffffff1673ffffffffffffffffffffffffffffffffffffffff1673ffffffffffffffffffffffffffffffffffffffff168152602001600382018054610c8690611f7b565b80601f0160208091040260200160405190810160405280929190818152602001828054610cb290611f7b565b8015610cff5780601f10610cd457610100808354040283529160200191610cff565b820191906000526020600020905b815481529060010190602001808311610ce257829003601f168201915b50505050508152602001600482018054610d1890611f7b565b80601f0160208091040260200160405190810160405280929190818152602001828054610d4490611f7b565b8015610d915780601f10610d6657610100808354040283529160200191610d91565b820191906000526020600020905b815481529060010190602001808311610d7457829003601f168201915b5050505050815260200160058201548152602001600682018054610db490611f7b565b80601f0160208091040260200160405190810160405280929190818152602001828054610de090611f7b565b8015610e2d5780601f10610e0257610100808354040283529160200191610e2d565b820191906000526020600020905b815481529060010190602001808311610e1057829003601f168201915b50505050508152602001600782018054610e4690611f7b565b80601f0160208091040260200160405190810160405280929190818152602001828054610e7290611f7b565b8015610ebf5780601f10610e9457610100808354040283529160200191610ebf565b820191906000526020600020905b815481529060010190602001808311610ea257829003601f168201915b50505050508152602001600882018054610ed890611f7b565b80601f0160208091040260200160405190810160405280929190818152602001828054610f0490611f7b565b8015610f515780601f10610f2657610100808354040283529160200191610f51565b820191906000526020600020905b815481529060010190602001808311610f3457829003601f168201915b505050505081526020016009820160009054906101000a900460ff16151515158152602001600a8201548152602001600b8201548152505081526020019060010190610b60565b50505050905060005b81518110156110ca573373ffffffffffffffffffffffffffffffffffffffff16828281518110610ffa577f4e487b7100000000000000000000000000000000000000000000000000000000600052603260045260246000fd5b60200260200101516040015173ffffffffffffffffffffffffffffffffffffffff1614156110b75781818151811061105b577f4e487b7100000000000000000000000000000000000000000000000000000000600052603260045260246000fd5b602002602001015185858151811061109c577f4e487b7100000000000000000000000000000000000000000000000000000000600052603260045260246000fd5b60200260200101819052506001846110b49190611e9b565b93505b80806110c290611fde565b915050610fa1565b505080806110d790611fde565b915050610a8f565b5081935050505090565b6060600280548060200260200160405190810160405280929190818152602001828054801561116d57602002820191906000526020600020905b8160009054906101000a900473ffffffffffffffffffffffffffffffffffffffff1673ffffffffffffffffffffffffffffffffffffffff1681526020019060010190808311611123575b5050505050905090565b60606000803373ffffffffffffffffffffffffffffffffffffffff1673ffffffffffffffffffffffffffffffffffffffff168152602001908152602001600020805480602002602001604051908101604052809291908181526020016000905b8282101561160f57838290600052602060002090600c02016040518061018001604052908160008201805461120b90611f7b565b80601f016020809104026020016040519081016040528092919081815260200182805461123790611f7b565b80156112845780601f1061125957610100808354040283529160200191611284565b820191906000526020600020905b81548152906001019060200180831161126757829003601f168201915b50505050508152602001600182015481526020016002820160009054906101000a900473ffffffffffffffffffffffffffffffffffffffff1673ffffffffffffffffffffffffffffffffffffffff1673ffffffffffffffffffffffffffffffffffffffff1681526020016003820180546112fd90611f7b565b80601f016020809104026020016040519081016040528092919081815260200182805461132990611f7b565b80156113765780601f1061134b57610100808354040283529160200191611376565b820191906000526020600020905b81548152906001019060200180831161135957829003601f168201915b5050505050815260200160048201805461138f90611f7b565b80601f01602080910402602001604051908101604052809291908181526020018280546113bb90611f7b565b80156114085780601f106113dd57610100808354040283529160200191611408565b820191906000526020600020905b8154815290600101906020018083116113eb57829003601f168201915b505050505081526020016005820154815260200160068201805461142b90611f7b565b80601f016020809104026020016040519081016040528092919081815260200182805461145790611f7b565b80156114a45780601f10611479576101008083540402835291602001916114a4565b820191906000526020600020905b81548152906001019060200180831161148757829003601f168201915b505050505081526020016007820180546114bd90611f7b565b80601f01602080910402602001604051908101604052809291908181526020018280546114e990611f7b565b80156115365780601f1061150b57610100808354040283529160200191611536565b820191906000526020600020905b81548152906001019060200180831161151957829003601f168201915b5050505050815260200160088201805461154f90611f7b565b80601f016020809104026020016040519081016040528092919081815260200182805461157b90611f7b565b80156115c85780601f1061159d576101008083540402835291602001916115c8565b820191906000526020600020905b8154815290600101906020018083116115ab57829003601f168201915b505050505081526020016009820160009054906101000a900460ff16151515158152602001600a8201548152602001600b82015481525050815260200190600101906111d7565b50505050905090565b600080600090505b82518110156116ba57828181518110611662577f4e487b7100000000000000000000000000000000000000000000000000000000600052603260045260246000fd5b602002602001015173ffffffffffffffffffffffffffffffffffffffff168473ffffffffffffffffffffffffffffffffffffffff1614156116a75760019150506116c0565b80806116b290611fde565b915050611620565b50600090505b92915050565b6040518061018001604052806060815260200160008152602001600073ffffffffffffffffffffffffffffffffffffffff16815260200160608152602001606081526020016000815260200160608152602001606081526020016060815260200160001515815260200160008152602001600081525090565b82805461174b90611f7b565b90600052602060002090601f01602090048101928261176d57600085556117b4565b82601f1061178657805160ff19168380011785556117b4565b828001600101855582156117b4579182015b828111156117b3578251825591602001919060010190611798565b5b5090506117c191906117c5565b5090565b5b808211156117de5760008160009055506001016117c6565b5090565b60006117f56117f084611ddc565b611db7565b90508281526020810184848401111561180d57600080fd5b611818848285611f39565b509392505050565b60008135905061182f816120c5565b92915050565b600082601f83011261184657600080fd5b81356118568482602086016117e2565b91505092915050565b60008135905061186e816120dc565b92915050565b600080600080600080600080610100898b03121561189157600080fd5b600089013567ffffffffffffffff8111156118ab57600080fd5b6118b78b828c01611835565b98505060206118c88b828c0161185f565b97505060406118d98b828c01611820565b965050606089013567ffffffffffffffff8111156118f657600080fd5b6119028b828c01611835565b955050608089013567ffffffffffffffff81111561191f57600080fd5b61192b8b828c01611835565b94505060a089013567ffffffffffffffff81111561194857600080fd5b6119548b828c01611835565b93505060c089013567ffffffffffffffff81111561197157600080fd5b61197d8b828c01611835565b92505060e061198e8b828c0161185f565b9150509295985092959890939650565b60006119aa83836119ca565b60208301905092915050565b60006119c28383611af4565b905092915050565b6119d381611ef1565b82525050565b60006119e482611e2d565b6119ee8185611e68565b93506119f983611e0d565b8060005b83811015611a2a578151611a11888261199e565b9750611a1c83611e4e565b9250506001810190506119fd565b5085935050505092915050565b6000611a4282611e38565b611a4c8185611e79565b935083602082028501611a5e85611e1d565b8060005b85811015611a9a5784840389528151611a7b85826119b6565b9450611a8683611e5b565b925060208a01995050600181019050611a62565b50829750879550505050505092915050565b611ab581611f03565b82525050565b6000611ac682611e43565b611ad08185611e8a565b9350611ae0818560208601611f48565b611ae9816120b4565b840191505092915050565b6000610180830160008301518482036000860152611b128282611abb565b9150506020830151611b276020860182611d42565b506040830151611b3a60408601826119ca565b5060608301518482036060860152611b528282611abb565b91505060808301518482036080860152611b6c8282611abb565b91505060a0830151611b8160a0860182611d42565b5060c083015184820360c0860152611b998282611abb565b91505060e083015184820360e0860152611bb38282611abb565b915050610100830151848203610100860152611bcf8282611abb565b915050610120830151611be6610120860182611aac565b50610140830151611bfb610140860182611d42565b50610160830151611c10610160860182611d42565b508091505092915050565b6000610180830160008301518482036000860152611c398282611abb565b9150506020830151611c4e6020860182611d42565b506040830151611c6160408601826119ca565b5060608301518482036060860152611c798282611abb565b91505060808301518482036080860152611c938282611abb565b91505060a0830151611ca860a0860182611d42565b5060c083015184820360c0860152611cc08282611abb565b91505060e083015184820360e0860152611cda8282611abb565b915050610100830151848203610100860152611cf68282611abb565b915050610120830151611d0d610120860182611aac565b50610140830151611d22610140860182611d42565b50610160830151611d37610160860182611d42565b508091505092915050565b611d4b81611f2f565b82525050565b60006020820190508181036000830152611d6b81846119d9565b905092915050565b60006020820190508181036000830152611d8d8184611a37565b905092915050565b60006020820190508181036000830152611daf8184611c1b565b905092915050565b6000611dc1611dd2565b9050611dcd8282611fad565b919050565b6000604051905090565b600067ffffffffffffffff821115611df757611df6612085565b5b611e00826120b4565b9050602081019050919050565b6000819050602082019050919050565b6000819050602082019050919050565b600081519050919050565b600081519050919050565b600081519050919050565b6000602082019050919050565b6000602082019050919050565b600082825260208201905092915050565b600082825260208201905092915050565b600082825260208201905092915050565b6000611ea682611f2f565b9150611eb183611f2f565b9250827fffffffffffffffffffffffffffffffffffffffffffffffffffffffffffffffff03821115611ee657611ee5612027565b5b828201905092915050565b6000611efc82611f0f565b9050919050565b60008115159050919050565b600073ffffffffffffffffffffffffffffffffffffffff82169050919050565b6000819050919050565b82818337600083830152505050565b60005b83811015611f66578082015181840152602081019050611f4b565b83811115611f75576000848401525b50505050565b60006002820490506001821680611f9357607f821691505b60208210811415611fa757611fa6612056565b5b50919050565b611fb6826120b4565b810181811067ffffffffffffffff82111715611fd557611fd4612085565b5b80604052505050565b6000611fe982611f2f565b91507fffffffffffffffffffffffffffffffffffffffffffffffffffffffffffffffff82141561201c5761201b612027565b5b600182019050919050565b7f4e487b7100000000000000000000000000000000000000000000000000000000600052601160045260246000fd5b7f4e487b7100000000000000000000000000000000000000000000000000000000600052602260045260246000fd5b7f4e487b7100000000000000000000000000000000000000000000000000000000600052604160045260246000fd5b6000601f19601f8301169050919050565b6120ce81611ef1565b81146120d957600080fd5b50565b6120e581611f2f565b81146120f057600080fd5b5056fea2646970667358221220f04da0417b4b0074ff09924b108df98ba03e90394969cebbb91f25718eedf2ed64736f6c63430008040033",
  "linkReferences": {},
  "deployedLinkReferences": {}
}