{
  "_format": "hh-sol-artifact-1",
  "contractName": "webThreeSales",
  "sourceName": "contracts/webThreeSales.sol",
  "abi": [
    {
      "inputs": [],
      "stateMutability": "payable",
      "type": "constructor"
    },
    {
      "anonymous": false,
      "inputs": [
        {
          "indexed": true,
          "internalType": "address",
          "name": "payee",
          "type": "address"
        },
        {
          "indexed": false,
          "internalType": "uint256",
          "name": "weiAmount",
          "type": "uint256"
        }
      ],
      "name": "Deposited",
      "type": "event"
    },
    {
      "anonymous": false,
      "inputs": [
        {
          "indexed": true,
          "internalType": "address",
          "name": "payee",
          "type": "address"
        },
        {
          "indexed": false,
          "internalType": "uint256",
          "name": "weiAmount",
          "type": "uint256"
        }
      ],
      "name": "Withdrawn",
      "type": "event"
    },
    {
      "inputs": [
        {
          "internalType": "string",
          "name": "job_id",
          "type": "string"
        },
        {
          "internalType": "address",
          "name": "customer",
          "type": "address"
        }
      ],
      "name": "acceptWork",
      "outputs": [],
      "stateMutability": "nonpayable",
      "type": "function"
    },
    {
      "inputs": [
        {
          "internalType": "address",
          "name": "user",
          "type": "address"
        }
      ],
      "name": "addAdmin",
      "outputs": [],
      "stateMutability": "nonpayable",
      "type": "function"
    },
    {
      "inputs": [
        {
          "internalType": "string",
          "name": "job_id",
          "type": "string"
        }
      ],
      "name": "approveWork",
      "outputs": [],
      "stateMutability": "nonpayable",
      "type": "function"
    },
    {
      "inputs": [
        {
          "internalType": "string",
          "name": "job_id",
          "type": "string"
        },
        {
          "internalType": "bool",
          "name": "basic",
          "type": "bool"
        },
        {
          "internalType": "bool",
          "name": "premium",
          "type": "bool"
        },
        {
          "internalType": "bool",
          "name": "standard",
          "type": "bool"
        },
        {
          "internalType": "uint256",
          "name": "basic_price",
          "type": "uint256"
        },
        {
          "internalType": "uint256",
          "name": "premium_price",
          "type": "uint256"
        },
        {
          "internalType": "uint256",
          "name": "standard_price",
          "type": "uint256"
        }
      ],
      "name": "createJob",
      "outputs": [],
      "stateMutability": "nonpayable",
      "type": "function"
    },
    {
      "inputs": [
        {
          "internalType": "string",
          "name": "job_id",
          "type": "string"
        },
        {
          "internalType": "address",
          "name": "customer",
          "type": "address"
        }
      ],
      "name": "finishJob",
      "outputs": [],
      "stateMutability": "nonpayable",
      "type": "function"
    },
    {
      "inputs": [],
      "name": "getAddresses",
      "outputs": [
        {
          "internalType": "address[]",
          "name": "",
          "type": "address[]"
        }
      ],
      "stateMutability": "view",
      "type": "function"
    },
    {
      "inputs": [],
      "name": "getOrdered",
      "outputs": [
        {
          "components": [
            {
              "internalType": "string",
              "name": "api_id",
              "type": "string"
            },
            {
              "internalType": "address",
              "name": "worker_address",
              "type": "address"
            },
            {
              "internalType": "uint256",
              "name": "price",
              "type": "uint256"
            },
            {
              "internalType": "uint256",
              "name": "delivery_day",
              "type": "uint256"
            },
            {
              "internalType": "string",
              "name": "order_title",
              "type": "string"
            },
            {
              "internalType": "string",
              "name": "order_desc",
              "type": "string"
            },
            {
              "internalType": "string",
              "name": "plan_title",
              "type": "string"
            },
            {
              "internalType": "string",
              "name": "plan_desc",
              "type": "string"
            },
            {
              "internalType": "string",
              "name": "status",
              "type": "string"
            },
            {
              "internalType": "bool",
              "name": "customer_accepted",
              "type": "bool"
            },
            {
              "internalType": "bool",
              "name": "accepted",
              "type": "bool"
            },
            {
              "internalType": "bool",
              "name": "payed",
              "type": "bool"
            },
            {
              "internalType": "uint256",
              "name": "accepted_at",
              "type": "uint256"
            },
            {
              "internalType": "uint256",
              "name": "ordered_at",
              "type": "uint256"
            }
          ],
          "internalType": "struct webThreeSales.Order[]",
          "name": "",
          "type": "tuple[]"
        }
      ],
      "stateMutability": "view",
      "type": "function"
    },
    {
      "inputs": [],
      "name": "getOrders",
      "outputs": [
        {
          "components": [
            {
              "internalType": "string",
              "name": "api_id",
              "type": "string"
            },
            {
              "internalType": "address",
              "name": "worker_address",
              "type": "address"
            },
            {
              "internalType": "uint256",
              "name": "price",
              "type": "uint256"
            },
            {
              "internalType": "uint256",
              "name": "delivery_day",
              "type": "uint256"
            },
            {
              "internalType": "string",
              "name": "order_title",
              "type": "string"
            },
            {
              "internalType": "string",
              "name": "order_desc",
              "type": "string"
            },
            {
              "internalType": "string",
              "name": "plan_title",
              "type": "string"
            },
            {
              "internalType": "string",
              "name": "plan_desc",
              "type": "string"
            },
            {
              "internalType": "string",
              "name": "status",
              "type": "string"
            },
            {
              "internalType": "bool",
              "name": "customer_accepted",
              "type": "bool"
            },
            {
              "internalType": "bool",
              "name": "accepted",
              "type": "bool"
            },
            {
              "internalType": "bool",
              "name": "payed",
              "type": "bool"
            },
            {
              "internalType": "uint256",
              "name": "accepted_at",
              "type": "uint256"
            },
            {
              "internalType": "uint256",
              "name": "ordered_at",
              "type": "uint256"
            }
          ],
          "internalType": "struct webThreeSales.Order[]",
          "name": "",
          "type": "tuple[]"
        }
      ],
      "stateMutability": "view",
      "type": "function"
    },
    {
      "inputs": [
        {
          "internalType": "string",
          "name": "api_id",
          "type": "string"
        }
      ],
      "name": "payOrder",
      "outputs": [],
      "stateMutability": "payable",
      "type": "function"
    },
    {
      "inputs": [
        {
          "internalType": "string",
          "name": "api_id",
          "type": "string"
        },
        {
          "internalType": "uint256",
          "name": "delivery_day",
          "type": "uint256"
        },
        {
          "internalType": "string",
          "name": "order_title",
          "type": "string"
        },
        {
          "internalType": "string",
          "name": "order_desc",
          "type": "string"
        },
        {
          "internalType": "string",
          "name": "plan_title",
          "type": "string"
        },
        {
          "internalType": "string",
          "name": "plan_desc",
          "type": "string"
        }
      ],
      "name": "postOrder",
      "outputs": [
        {
          "components": [
            {
              "internalType": "string",
              "name": "api_id",
              "type": "string"
            },
            {
              "internalType": "address",
              "name": "worker_address",
              "type": "address"
            },
            {
              "internalType": "uint256",
              "name": "price",
              "type": "uint256"
            },
            {
              "internalType": "uint256",
              "name": "delivery_day",
              "type": "uint256"
            },
            {
              "internalType": "string",
              "name": "order_title",
              "type": "string"
            },
            {
              "internalType": "string",
              "name": "order_desc",
              "type": "string"
            },
            {
              "internalType": "string",
              "name": "plan_title",
              "type": "string"
            },
            {
              "internalType": "string",
              "name": "plan_desc",
              "type": "string"
            },
            {
              "internalType": "string",
              "name": "status",
              "type": "string"
            },
            {
              "internalType": "bool",
              "name": "customer_accepted",
              "type": "bool"
            },
            {
              "internalType": "bool",
              "name": "accepted",
              "type": "bool"
            },
            {
              "internalType": "bool",
              "name": "payed",
              "type": "bool"
            },
            {
              "internalType": "uint256",
              "name": "accepted_at",
              "type": "uint256"
            },
            {
              "internalType": "uint256",
              "name": "ordered_at",
              "type": "uint256"
            }
          ],
          "internalType": "struct webThreeSales.Order",
          "name": "",
          "type": "tuple"
        }
      ],
      "stateMutability": "nonpayable",
      "type": "function"
    },
    {
      "inputs": [
        {
          "internalType": "string",
          "name": "job_id",
          "type": "string"
        },
        {
          "internalType": "address",
          "name": "customer",
          "type": "address"
        },
        {
          "internalType": "address payable",
          "name": "owner",
          "type": "address"
        }
      ],
      "name": "withdraw",
      "outputs": [],
      "stateMutability": "nonpayable",
      "type": "function"
    }
  ],
  "bytecode": "0x6080604052336000806101000a81548173ffffffffffffffffffffffffffffffffffffffff021916908373ffffffffffffffffffffffffffffffffffffffff16021790555060018060003373ffffffffffffffffffffffffffffffffffffffff1673ffffffffffffffffffffffffffffffffffffffff16815260200190815260200160002060006101000a81548160ff021916908315150217905550614c95806100aa6000396000f3fe60806040526004361061009c5760003560e01c8063966a7dca11610064578063966a7dca14610170578063a39fac121461018c578063d031b38c146101b7578063dd66cb26146101e0578063eb7d1f871461020b578063ff84cc50146102485761009c565b80632e2dc43e146100a15780633dafca3f146100cc57806350c0467b146100f5578063704802751461011e578063786271ba14610147575b600080fd5b3480156100ad57600080fd5b506100b6610271565b6040516100c39190614458565b60405180910390f35b3480156100d857600080fd5b506100f360048036038101906100ee9190613ae2565b610f8d565b005b34801561010157600080fd5b5061011c60048036038101906101179190613aa1565b611188565b005b34801561012a57600080fd5b5061014560048036038101906101409190613a78565b61160e565b005b34801561015357600080fd5b5061016e60048036038101906101699190613b36565b6116f6565b005b61018a60048036038101906101859190613aa1565b611d34565b005b34801561019857600080fd5b506101a16121e4565b6040516101ae9190614436565b60405180910390f35b3480156101c357600080fd5b506101de60048036038101906101d99190613b9d565b612272565b005b3480156101ec57600080fd5b506101f56124a1565b6040516102029190614458565b60405180910390f35b34801561021757600080fd5b50610232600480360381019061022d9190613c53565b612979565b60405161023f91906145fa565b60405180910390f35b34801561025457600080fd5b5061026f600480360381019061026a9190613ae2565b6130ff565b005b60606000805b60068054905081101561087957600060026000600684815481106102c4577f4e487b7100000000000000000000000000000000000000000000000000000000600052603260045260246000fd5b9060005260206000200160009054906101000a900473ffffffffffffffffffffffffffffffffffffffff1673ffffffffffffffffffffffffffffffffffffffff1673ffffffffffffffffffffffffffffffffffffffff168152602001908152602001600020805480602002602001604051908101604052809291908181526020016000905b828210156107b757838290600052602060002090600c0201604051806101c001604052908160008201805461037d90614829565b80601f01602080910402602001604051908101604052809291908181526020018280546103a990614829565b80156103f65780601f106103cb576101008083540402835291602001916103f6565b820191906000526020600020905b8154815290600101906020018083116103d957829003601f168201915b505050505081526020016001820160009054906101000a900473ffffffffffffffffffffffffffffffffffffffff1673ffffffffffffffffffffffffffffffffffffffff1673ffffffffffffffffffffffffffffffffffffffff168152602001600282015481526020016003820154815260200160048201805461047990614829565b80601f01602080910402602001604051908101604052809291908181526020018280546104a590614829565b80156104f25780601f106104c7576101008083540402835291602001916104f2565b820191906000526020600020905b8154815290600101906020018083116104d557829003601f168201915b5050505050815260200160058201805461050b90614829565b80601f016020809104026020016040519081016040528092919081815260200182805461053790614829565b80156105845780601f1061055957610100808354040283529160200191610584565b820191906000526020600020905b81548152906001019060200180831161056757829003601f168201915b5050505050815260200160068201805461059d90614829565b80601f01602080910402602001604051908101604052809291908181526020018280546105c990614829565b80156106165780601f106105eb57610100808354040283529160200191610616565b820191906000526020600020905b8154815290600101906020018083116105f957829003601f168201915b5050505050815260200160078201805461062f90614829565b80601f016020809104026020016040519081016040528092919081815260200182805461065b90614829565b80156106a85780601f1061067d576101008083540402835291602001916106a8565b820191906000526020600020905b81548152906001019060200180831161068b57829003601f168201915b505050505081526020016008820180546106c190614829565b80601f01602080910402602001604051908101604052809291908181526020018280546106ed90614829565b801561073a5780601f1061070f5761010080835404028352916020019161073a565b820191906000526020600020905b81548152906001019060200180831161071d57829003601f168201915b505050505081526020016009820160009054906101000a900460ff161515151581526020016009820160019054906101000a900460ff161515151581526020016009820160029054906101000a900460ff16151515158152602001600a8201548152602001600b8201548152505081526020019060010190610349565b50505050905060005b8151811015610864573373ffffffffffffffffffffffffffffffffffffffff16828281518110610819577f4e487b7100000000000000000000000000000000000000000000000000000000600052603260045260246000fd5b60200260200101516020015173ffffffffffffffffffffffffffffffffffffffff1614156108515760018461084e9190614737565b93505b808061085c9061488c565b9150506107c0565b505080806108719061488c565b915050610277565b5060008167ffffffffffffffff8111156108bc577f4e487b7100000000000000000000000000000000000000000000000000000000600052604160045260246000fd5b6040519080825280602002602001820160405280156108f557816020015b6108e261388e565b8152602001906001900390816108da5790505b5090506000805b600680549050811015610f835760006002600060068481548110610949577f4e487b7100000000000000000000000000000000000000000000000000000000600052603260045260246000fd5b9060005260206000200160009054906101000a900473ffffffffffffffffffffffffffffffffffffffff1673ffffffffffffffffffffffffffffffffffffffff1673ffffffffffffffffffffffffffffffffffffffff168152602001908152602001600020805480602002602001604051908101604052809291908181526020016000905b82821015610e3c57838290600052602060002090600c0201604051806101c0016040529081600082018054610a0290614829565b80601f0160208091040260200160405190810160405280929190818152602001828054610a2e90614829565b8015610a7b5780601f10610a5057610100808354040283529160200191610a7b565b820191906000526020600020905b815481529060010190602001808311610a5e57829003601f168201915b505050505081526020016001820160009054906101000a900473ffffffffffffffffffffffffffffffffffffffff1673ffffffffffffffffffffffffffffffffffffffff1673ffffffffffffffffffffffffffffffffffffffff1681526020016002820154815260200160038201548152602001600482018054610afe90614829565b80601f0160208091040260200160405190810160405280929190818152602001828054610b2a90614829565b8015610b775780601f10610b4c57610100808354040283529160200191610b77565b820191906000526020600020905b815481529060010190602001808311610b5a57829003601f168201915b50505050508152602001600582018054610b9090614829565b80601f0160208091040260200160405190810160405280929190818152602001828054610bbc90614829565b8015610c095780601f10610bde57610100808354040283529160200191610c09565b820191906000526020600020905b815481529060010190602001808311610bec57829003601f168201915b50505050508152602001600682018054610c2290614829565b80601f0160208091040260200160405190810160405280929190818152602001828054610c4e90614829565b8015610c9b5780601f10610c7057610100808354040283529160200191610c9b565b820191906000526020600020905b815481529060010190602001808311610c7e57829003601f168201915b50505050508152602001600782018054610cb490614829565b80601f0160208091040260200160405190810160405280929190818152602001828054610ce090614829565b8015610d2d5780601f10610d0257610100808354040283529160200191610d2d565b820191906000526020600020905b815481529060010190602001808311610d1057829003601f168201915b50505050508152602001600882018054610d4690614829565b80601f0160208091040260200160405190810160405280929190818152602001828054610d7290614829565b8015610dbf5780601f10610d9457610100808354040283529160200191610dbf565b820191906000526020600020905b815481529060010190602001808311610da257829003601f168201915b505050505081526020016009820160009054906101000a900460ff161515151581526020016009820160019054906101000a900460ff161515151581526020016009820160029054906101000a900460ff16151515158152602001600a8201548152602001600b82015481525050815260200190600101906109ce565b50505050905060005b8151811015610f6e573373ffffffffffffffffffffffffffffffffffffffff16828281518110610e9e577f4e487b7100000000000000000000000000000000000000000000000000000000600052603260045260246000fd5b60200260200101516020015173ffffffffffffffffffffffffffffffffffffffff161415610f5b57818181518110610eff577f4e487b7100000000000000000000000000000000000000000000000000000000600052603260045260246000fd5b6020026020010151858581518110610f40577f4e487b7100000000000000000000000000000000000000000000000000000000600052603260045260246000fd5b6020026020010181905250600184610f589190614737565b93505b8080610f669061488c565b915050610e45565b50508080610f7b9061488c565b9150506108fc565b5081935050505090565b6000610f998383613607565b90503373ffffffffffffffffffffffffffffffffffffffff16600260008473ffffffffffffffffffffffffffffffffffffffff1673ffffffffffffffffffffffffffffffffffffffff1681526020019081526020016000208281548110611029577f4e487b7100000000000000000000000000000000000000000000000000000000600052603260045260246000fd5b90600052602060002090600c020160010160009054906101000a900473ffffffffffffffffffffffffffffffffffffffff1673ffffffffffffffffffffffffffffffffffffffff16146110b1576040517f08c379a00000000000000000000000000000000000000000000000000000000081526004016110a8906144fa565b60405180910390fd5b6040518060400160405280600481526020017f646f6e6500000000000000000000000000000000000000000000000000000000815250600260008473ffffffffffffffffffffffffffffffffffffffff1673ffffffffffffffffffffffffffffffffffffffff168152602001908152602001600020828154811061115e577f4e487b7100000000000000000000000000000000000000000000000000000000600052603260045260246000fd5b90600052602060002090600c02016008019080519060200190611182929190613919565b50505050565b80336000806111978433613607565b905060005b600260008573ffffffffffffffffffffffffffffffffffffffff1673ffffffffffffffffffffffffffffffffffffffff1681526020019081526020016000208054905081101561136d576000600260008673ffffffffffffffffffffffffffffffffffffffff1673ffffffffffffffffffffffffffffffffffffffff168152602001908152602001600020838154811061125f577f4e487b7100000000000000000000000000000000000000000000000000000000600052603260045260246000fd5b90600052602060002090600c0201600001805461127b90614829565b80601f01602080910402602001604051908101604052809291908181526020018280546112a790614829565b80156112f45780601f106112c9576101008083540402835291602001916112f4565b820191906000526020600020905b8154815290600101906020018083116112d757829003601f168201915b505050505090508560405160200161130c91906143cb565b604051602081830303815290604052805190602001208160405160200161133391906143cb565b60405160208183030381529060405280519060200120141561135957600193505061136d565b5080806113659061488c565b91505061119c565b5060011515821515146113b5576040517f08c379a00000000000000000000000000000000000000000000000000000000081526004016113ac9061447a565b60405180910390fd5b60006113c18633613607565b90506000600260003373ffffffffffffffffffffffffffffffffffffffff1673ffffffffffffffffffffffffffffffffffffffff168152602001908152602001600020828154811061143c577f4e487b7100000000000000000000000000000000000000000000000000000000600052603260045260246000fd5b90600052602060002090600c0201600801805461145890614829565b80601f016020809104026020016040519081016040528092919081815260200182805461148490614829565b80156114d15780601f106114a6576101008083540402835291602001916114d1565b820191906000526020600020905b8154815290600101906020018083116114b457829003601f168201915b505050505090506040516020016114e7906143f7565b604051602081830303815290604052805190602001208160405160200161150e91906143cb565b6040516020818303038152906040528051906020012014611564576040517f08c379a000000000000000000000000000000000000000000000000000000000815260040161155b9061455a565b60405180910390fd5b6001600260003373ffffffffffffffffffffffffffffffffffffffff1673ffffffffffffffffffffffffffffffffffffffff16815260200190815260200160002083815481106115dd577f4e487b7100000000000000000000000000000000000000000000000000000000600052603260045260246000fd5b90600052602060002090600c020160090160006101000a81548160ff02191690831515021790555050505050505050565b60008054906101000a900473ffffffffffffffffffffffffffffffffffffffff1673ffffffffffffffffffffffffffffffffffffffff163373ffffffffffffffffffffffffffffffffffffffff161461169c576040517f08c379a00000000000000000000000000000000000000000000000000000000081526004016116939061453a565b60405180910390fd5b60018060008373ffffffffffffffffffffffffffffffffffffffff1673ffffffffffffffffffffffffffffffffffffffff16815260200190815260200160002060006101000a81548160ff02191690831515021790555050565b60006117028484613607565b90506000600260008573ffffffffffffffffffffffffffffffffffffffff1673ffffffffffffffffffffffffffffffffffffffff168152602001908152602001600020828154811061177d577f4e487b7100000000000000000000000000000000000000000000000000000000600052603260045260246000fd5b90600052602060002090600c0201600801805461179990614829565b80601f01602080910402602001604051908101604052809291908181526020018280546117c590614829565b80156118125780601f106117e757610100808354040283529160200191611812565b820191906000526020600020905b8154815290600101906020018083116117f557829003601f168201915b5050505050905060006040518060400160405280600481526020017f646f6e6500000000000000000000000000000000000000000000000000000000815250905060001515600160003373ffffffffffffffffffffffffffffffffffffffff1673ffffffffffffffffffffffffffffffffffffffff16815260200190815260200160002060009054906101000a900460ff1615151415611b2d5760011515600260008773ffffffffffffffffffffffffffffffffffffffff1673ffffffffffffffffffffffffffffffffffffffff1681526020019081526020016000208481548110611927577f4e487b7100000000000000000000000000000000000000000000000000000000600052603260045260246000fd5b90600052602060002090600c020160090160009054906101000a900460ff16151514611988576040517f08c379a000000000000000000000000000000000000000000000000000000000815260040161197f906144ba565b60405180910390fd5b8060405160200161199991906143cb565b60405160208183030381529060405280519060200120826040516020016119c091906143cb565b6040516020818303038152906040528051906020012014611a16576040517f08c379a0000000000000000000000000000000000000000000000000000000008152600401611a0d9061455a565b60405180910390fd5b3373ffffffffffffffffffffffffffffffffffffffff16600260008773ffffffffffffffffffffffffffffffffffffffff1673ffffffffffffffffffffffffffffffffffffffff1681526020019081526020016000208481548110611aa4577f4e487b7100000000000000000000000000000000000000000000000000000000600052603260045260246000fd5b90600052602060002090600c020160010160009054906101000a900473ffffffffffffffffffffffffffffffffffffffff1673ffffffffffffffffffffffffffffffffffffffff1614611b2c576040517f08c379a0000000000000000000000000000000000000000000000000000000008152600401611b23906144fa565b60405180910390fd5b5b60011515600260008773ffffffffffffffffffffffffffffffffffffffff1673ffffffffffffffffffffffffffffffffffffffff1681526020019081526020016000208481548110611ba8577f4e487b7100000000000000000000000000000000000000000000000000000000600052603260045260246000fd5b90600052602060002090600c020160090160029054906101000a900460ff16151514611c09576040517f08c379a0000000000000000000000000000000000000000000000000000000008152600401611c009061457a565b60405180910390fd5b6000600260008773ffffffffffffffffffffffffffffffffffffffff1673ffffffffffffffffffffffffffffffffffffffff1681526020019081526020016000208481548110611c82577f4e487b7100000000000000000000000000000000000000000000000000000000600052603260045260246000fd5b90600052602060002090600c02016002015490508473ffffffffffffffffffffffffffffffffffffffff166108fc829081150290604051600060405180830381858888f19350505050158015611cdc573d6000803e3d6000fd5b503373ffffffffffffffffffffffffffffffffffffffff167f7084f5476618d8e60b11ef0d7d3f06914655adb8793e28ff7f018d4c76d505d582604051611d23919061461c565b60405180910390a250505050505050565b8033600080611d438433613607565b905060005b600260008573ffffffffffffffffffffffffffffffffffffffff1673ffffffffffffffffffffffffffffffffffffffff16815260200190815260200160002080549050811015611f19576000600260008673ffffffffffffffffffffffffffffffffffffffff1673ffffffffffffffffffffffffffffffffffffffff1681526020019081526020016000208381548110611e0b577f4e487b7100000000000000000000000000000000000000000000000000000000600052603260045260246000fd5b90600052602060002090600c02016000018054611e2790614829565b80601f0160208091040260200160405190810160405280929190818152602001828054611e5390614829565b8015611ea05780601f10611e7557610100808354040283529160200191611ea0565b820191906000526020600020905b815481529060010190602001808311611e8357829003601f168201915b5050505050905085604051602001611eb891906143cb565b6040516020818303038152906040528051906020012081604051602001611edf91906143cb565b604051602081830303815290604052805190602001201415611f05576001935050611f19565b508080611f119061488c565b915050611d48565b506001151582151514611f61576040517f08c379a0000000000000000000000000000000000000000000000000000000008152600401611f589061447a565b60405180910390fd5b60003490506000611f728733613607565b90506000600260003373ffffffffffffffffffffffffffffffffffffffff1673ffffffffffffffffffffffffffffffffffffffff1681526020019081526020016000208281548110611fed577f4e487b7100000000000000000000000000000000000000000000000000000000600052603260045260246000fd5b90600052602060002090600c020160010160009054906101000a900473ffffffffffffffffffffffffffffffffffffffff16905082600260003373ffffffffffffffffffffffffffffffffffffffff1673ffffffffffffffffffffffffffffffffffffffff1681526020019081526020016000208381548110612099577f4e487b7100000000000000000000000000000000000000000000000000000000600052603260045260246000fd5b90600052602060002090600c020160020154146120eb576040517f08c379a00000000000000000000000000000000000000000000000000000000081526004016120e29061459a565b60405180910390fd5b6001600260003373ffffffffffffffffffffffffffffffffffffffff1673ffffffffffffffffffffffffffffffffffffffff1681526020019081526020016000208381548110612164577f4e487b7100000000000000000000000000000000000000000000000000000000600052603260045260246000fd5b90600052602060002090600c020160090160026101000a81548160ff0219169083151502179055508073ffffffffffffffffffffffffffffffffffffffff167f2da466a7b24304f47e87fa2e1e5a81b9831ce54fec19055ce277ca2f39ba42c4846040516121d2919061461c565b60405180910390a25050505050505050565b6060600680548060200260200160405190810160405280929190818152602001828054801561226857602002820191906000526020600020905b8160009054906101000a900473ffffffffffffffffffffffffffffffffffffffff1673ffffffffffffffffffffffffffffffffffffffff168152602001906001019080831161221e575b5050505050905090565b600073ffffffffffffffffffffffffffffffffffffffff1660038860405161229a91906143cb565b908152602001604051809103902060009054906101000a900473ffffffffffffffffffffffffffffffffffffffff1673ffffffffffffffffffffffffffffffffffffffff161461231f576040517f08c379a00000000000000000000000000000000000000000000000000000000081526004016123169061451a565b60405180910390fd5b85806123285750845b806123305750835b61236f576040517f08c379a0000000000000000000000000000000000000000000000000000000008152600401612366906144da565b60405180910390fd5b3360038860405161238091906143cb565b908152602001604051809103902060006101000a81548173ffffffffffffffffffffffffffffffffffffffff021916908373ffffffffffffffffffffffffffffffffffffffff160217905550851561241057826005886040516123e391906143cb565b90815260200160405180910390206040516123fd90614421565b9081526020016040518091039020819055505b8415612454578160058860405161242791906143cb565b9081526020016040518091039020604051612441906143e2565b9081526020016040518091039020819055505b8315612498578060058860405161246b91906143cb565b90815260200160405180910390206040516124859061440c565b9081526020016040518091039020819055505b50505050505050565b6060600260003373ffffffffffffffffffffffffffffffffffffffff1673ffffffffffffffffffffffffffffffffffffffff168152602001908152602001600020805480602002602001604051908101604052809291908181526020016000905b8282101561297057838290600052602060002090600c0201604051806101c001604052908160008201805461253690614829565b80601f016020809104026020016040519081016040528092919081815260200182805461256290614829565b80156125af5780601f10612584576101008083540402835291602001916125af565b820191906000526020600020905b81548152906001019060200180831161259257829003601f168201915b505050505081526020016001820160009054906101000a900473ffffffffffffffffffffffffffffffffffffffff1673ffffffffffffffffffffffffffffffffffffffff1673ffffffffffffffffffffffffffffffffffffffff168152602001600282015481526020016003820154815260200160048201805461263290614829565b80601f016020809104026020016040519081016040528092919081815260200182805461265e90614829565b80156126ab5780601f10612680576101008083540402835291602001916126ab565b820191906000526020600020905b81548152906001019060200180831161268e57829003601f168201915b505050505081526020016005820180546126c490614829565b80601f01602080910402602001604051908101604052809291908181526020018280546126f090614829565b801561273d5780601f106127125761010080835404028352916020019161273d565b820191906000526020600020905b81548152906001019060200180831161272057829003601f168201915b5050505050815260200160068201805461275690614829565b80601f016020809104026020016040519081016040528092919081815260200182805461278290614829565b80156127cf5780601f106127a4576101008083540402835291602001916127cf565b820191906000526020600020905b8154815290600101906020018083116127b257829003601f168201915b505050505081526020016007820180546127e890614829565b80601f016020809104026020016040519081016040528092919081815260200182805461281490614829565b80156128615780601f1061283657610100808354040283529160200191612861565b820191906000526020600020905b81548152906001019060200180831161284457829003601f168201915b5050505050815260200160088201805461287a90614829565b80601f01602080910402602001604051908101604052809291908181526020018280546128a690614829565b80156128f35780601f106128c8576101008083540402835291602001916128f3565b820191906000526020600020905b8154815290600101906020018083116128d657829003601f168201915b505050505081526020016009820160009054906101000a900460ff161515151581526020016009820160019054906101000a900460ff161515151581526020016009820160029054906101000a900460ff16151515158152602001600a8201548152602001600b8201548152505081526020019060010190612502565b50505050905090565b61298161388e565b8660008061298f8333613607565b905060005b600260003373ffffffffffffffffffffffffffffffffffffffff1673ffffffffffffffffffffffffffffffffffffffff16815260200190815260200160002080549050811015612b65576000600260003373ffffffffffffffffffffffffffffffffffffffff1673ffffffffffffffffffffffffffffffffffffffff1681526020019081526020016000208381548110612a57577f4e487b7100000000000000000000000000000000000000000000000000000000600052603260045260246000fd5b90600052602060002090600c02016000018054612a7390614829565b80601f0160208091040260200160405190810160405280929190818152602001828054612a9f90614829565b8015612aec5780601f10612ac157610100808354040283529160200191612aec565b820191906000526020600020905b815481529060010190602001808311612acf57829003601f168201915b5050505050905084604051602001612b0491906143cb565b6040516020818303038152906040528051906020012081604051602001612b2b91906143cb565b604051602081830303815290604052805190602001201415612b51576001935050612b65565b508080612b5d9061488c565b915050612994565b506000151582151514612bad576040517f08c379a0000000000000000000000000000000000000000000000000000000008152600401612ba4906145ba565b60405180910390fd5b600073ffffffffffffffffffffffffffffffffffffffff1660038b604051612bd591906143cb565b908152602001604051809103902060009054906101000a900473ffffffffffffffffffffffffffffffffffffffff1673ffffffffffffffffffffffffffffffffffffffff161415612c5b576040517f08c379a0000000000000000000000000000000000000000000000000000000008152600401612c52906145da565b60405180910390fd5b600060058b604051612c6d91906143cb565b908152602001604051809103902087604051612c8991906143cb565b9081526020016040518091039020541415612cd9576040517f08c379a0000000000000000000000000000000000000000000000000000000008152600401612cd09061449a565b60405180910390fd5b6000604051806101c001604052808c815260200160038d604051612cfd91906143cb565b908152602001604051809103902060009054906101000a900473ffffffffffffffffffffffffffffffffffffffff1673ffffffffffffffffffffffffffffffffffffffff16815260200160058d604051612d5791906143cb565b908152602001604051809103902089604051612d7391906143cb565b90815260200160405180910390205481526020018b81526020018a81526020018981526020018881526020018781526020016040518060400160405280600f81526020017f776169742e666f722e6163636570740000000000000000000000000000000000815250815260200160001515815260200160001515815260200160001515815260200160008152602001428152509050600260003373ffffffffffffffffffffffffffffffffffffffff1673ffffffffffffffffffffffffffffffffffffffff1681526020019081526020016000208190806001815401808255809150506001900390600052602060002090600c02016000909190919091506000820151816000019080519060200190612e8d929190613919565b5060208201518160010160006101000a81548173ffffffffffffffffffffffffffffffffffffffff021916908373ffffffffffffffffffffffffffffffffffffffff16021790555060408201518160020155606082015181600301556080820151816004019080519060200190612f05929190613919565b5060a0820151816005019080519060200190612f22929190613919565b5060c0820151816006019080519060200190612f3f929190613919565b5060e0820151816007019080519060200190612f5c929190613919565b50610100820151816008019080519060200190612f7a929190613919565b506101208201518160090160006101000a81548160ff0219169083151502179055506101408201518160090160016101000a81548160ff0219169083151502179055506101608201518160090160026101000a81548160ff02191690831515021790555061018082015181600a01556101a082015181600b0155505061308633600680548060200260200160405190810160405280929190818152602001828054801561307c57602002820191906000526020600020905b8160009054906101000a900473ffffffffffffffffffffffffffffffffffffffff1673ffffffffffffffffffffffffffffffffffffffff1681526020019060010190808311613032575b50505050506137e4565b6130ee576006339080600181540180825580915050600190039060005260206000200160009091909190916101000a81548173ffffffffffffffffffffffffffffffffffffffff021916908373ffffffffffffffffffffffffffffffffffffffff1602179055505b809450505050509695505050505050565b818160008061310e8433613607565b905060005b600260008573ffffffffffffffffffffffffffffffffffffffff1673ffffffffffffffffffffffffffffffffffffffff168152602001908152602001600020805490508110156132e4576000600260008673ffffffffffffffffffffffffffffffffffffffff1673ffffffffffffffffffffffffffffffffffffffff16815260200190815260200160002083815481106131d6577f4e487b7100000000000000000000000000000000000000000000000000000000600052603260045260246000fd5b90600052602060002090600c020160000180546131f290614829565b80601f016020809104026020016040519081016040528092919081815260200182805461321e90614829565b801561326b5780601f106132405761010080835404028352916020019161326b565b820191906000526020600020905b81548152906001019060200180831161324e57829003601f168201915b505050505090508560405160200161328391906143cb565b60405160208183030381529060405280519060200120816040516020016132aa91906143cb565b6040516020818303038152906040528051906020012014156132d05760019350506132e4565b5080806132dc9061488c565b915050613113565b50600115158215151461332c576040517f08c379a00000000000000000000000000000000000000000000000000000000081526004016133239061447a565b60405180910390fd5b60006133388787613607565b90503373ffffffffffffffffffffffffffffffffffffffff16600260008873ffffffffffffffffffffffffffffffffffffffff1673ffffffffffffffffffffffffffffffffffffffff16815260200190815260200160002082815481106133c8577f4e487b7100000000000000000000000000000000000000000000000000000000600052603260045260246000fd5b90600052602060002090600c020160010160009054906101000a900473ffffffffffffffffffffffffffffffffffffffff1673ffffffffffffffffffffffffffffffffffffffff1614613450576040517f08c379a0000000000000000000000000000000000000000000000000000000008152600401613447906144fa565b60405180910390fd5b60011515600260008873ffffffffffffffffffffffffffffffffffffffff1673ffffffffffffffffffffffffffffffffffffffff16815260200190815260200160002082815481106134cb577f4e487b7100000000000000000000000000000000000000000000000000000000600052603260045260246000fd5b90600052602060002090600c020160090160029054906101000a900460ff1615151461352c576040517f08c379a00000000000000000000000000000000000000000000000000000000081526004016135239061457a565b60405180910390fd5b6040518060400160405280600b81526020017f696e2e70726f6772657373000000000000000000000000000000000000000000815250600260008873ffffffffffffffffffffffffffffffffffffffff1673ffffffffffffffffffffffffffffffffffffffff16815260200190815260200160002082815481106135d9577f4e487b7100000000000000000000000000000000000000000000000000000000600052603260045260246000fd5b90600052602060002090600c020160080190805190602001906135fd929190613919565b5050505050505050565b6000805b600260008473ffffffffffffffffffffffffffffffffffffffff1673ffffffffffffffffffffffffffffffffffffffff168152602001908152602001600020805490508110156137dc576000600260008573ffffffffffffffffffffffffffffffffffffffff1673ffffffffffffffffffffffffffffffffffffffff16815260200190815260200160002082815481106136ce577f4e487b7100000000000000000000000000000000000000000000000000000000600052603260045260246000fd5b90600052602060002090600c020160000180546136ea90614829565b80601f016020809104026020016040519081016040528092919081815260200182805461371690614829565b80156137635780601f1061373857610100808354040283529160200191613763565b820191906000526020600020905b81548152906001019060200180831161374657829003601f168201915b505050505090508460405160200161377b91906143cb565b60405160208183030381529060405280519060200120816040516020016137a291906143cb565b6040516020818303038152906040528051906020012014156137c85781925050506137de565b5080806137d49061488c565b91505061360b565b505b92915050565b6000805b8251811015613882578373ffffffffffffffffffffffffffffffffffffffff16838281518110613841577f4e487b7100000000000000000000000000000000000000000000000000000000600052603260045260246000fd5b602002602001015173ffffffffffffffffffffffffffffffffffffffff16141561386f576001915050613888565b808061387a9061488c565b9150506137e8565b50600090505b92915050565b604051806101c0016040528060608152602001600073ffffffffffffffffffffffffffffffffffffffff1681526020016000815260200160008152602001606081526020016060815260200160608152602001606081526020016060815260200160001515815260200160001515815260200160001515815260200160008152602001600081525090565b82805461392590614829565b90600052602060002090601f016020900481019282613947576000855561398e565b82601f1061396057805160ff191683800117855561398e565b8280016001018555821561398e579182015b8281111561398d578251825591602001919060010190613972565b5b50905061399b919061399f565b5090565b5b808211156139b85760008160009055506001016139a0565b5090565b60006139cf6139ca8461465c565b614637565b9050828152602081018484840111156139e757600080fd5b6139f28482856147e7565b509392505050565b600081359050613a0981614c03565b92915050565b600081359050613a1e81614c1a565b92915050565b600081359050613a3381614c31565b92915050565b600082601f830112613a4a57600080fd5b8135613a5a8482602086016139bc565b91505092915050565b600081359050613a7281614c48565b92915050565b600060208284031215613a8a57600080fd5b6000613a98848285016139fa565b91505092915050565b600060208284031215613ab357600080fd5b600082013567ffffffffffffffff811115613acd57600080fd5b613ad984828501613a39565b91505092915050565b60008060408385031215613af557600080fd5b600083013567ffffffffffffffff811115613b0f57600080fd5b613b1b85828601613a39565b9250506020613b2c858286016139fa565b9150509250929050565b600080600060608486031215613b4b57600080fd5b600084013567ffffffffffffffff811115613b6557600080fd5b613b7186828701613a39565b9350506020613b82868287016139fa565b9250506040613b9386828701613a0f565b9150509250925092565b600080600080600080600060e0888a031215613bb857600080fd5b600088013567ffffffffffffffff811115613bd257600080fd5b613bde8a828b01613a39565b9750506020613bef8a828b01613a24565b9650506040613c008a828b01613a24565b9550506060613c118a828b01613a24565b9450506080613c228a828b01613a63565b93505060a0613c338a828b01613a63565b92505060c0613c448a828b01613a63565b91505092959891949750929550565b60008060008060008060c08789031215613c6c57600080fd5b600087013567ffffffffffffffff811115613c8657600080fd5b613c9289828a01613a39565b9650506020613ca389828a01613a63565b955050604087013567ffffffffffffffff811115613cc057600080fd5b613ccc89828a01613a39565b945050606087013567ffffffffffffffff811115613ce957600080fd5b613cf589828a01613a39565b935050608087013567ffffffffffffffff811115613d1257600080fd5b613d1e89828a01613a39565b92505060a087013567ffffffffffffffff811115613d3b57600080fd5b613d4789828a01613a39565b9150509295509295509295565b6000613d608383613d80565b60208301905092915050565b6000613d78838361410b565b905092915050565b613d898161478d565b82525050565b6000613d9a826146ad565b613da481856146e8565b9350613daf8361468d565b8060005b83811015613de0578151613dc78882613d54565b9750613dd2836146ce565b925050600181019050613db3565b5085935050505092915050565b6000613df8826146b8565b613e0281856146f9565b935083602082028501613e148561469d565b8060005b85811015613e505784840389528151613e318582613d6c565b9450613e3c836146db565b925060208a01995050600181019050613e18565b50829750879550505050505092915050565b613e6b816147b1565b82525050565b6000613e7c826146c3565b613e86818561470a565b9350613e968185602086016147f6565b613e9f81614962565b840191505092915050565b6000613eb5826146c3565b613ebf818561472c565b9350613ecf8185602086016147f6565b80840191505092915050565b6000613ee8600f8361471b565b9150613ef382614973565b602082019050919050565b6000613f0b60078361472c565b9150613f168261499c565b600782019050919050565b6000613f2e600e8361471b565b9150613f39826149c5565b602082019050919050565b6000613f5160178361471b565b9150613f5c826149ee565b602082019050919050565b6000613f7460048361472c565b9150613f7f82614a17565b600482019050919050565b6000613f9760108361471b565b9150613fa282614a40565b602082019050919050565b6000613fba60098361471b565b9150613fc582614a69565b602082019050919050565b6000613fdd60088361472c565b9150613fe882614a92565b600882019050919050565b600061400060168361471b565b915061400b82614abb565b602082019050919050565b600061402360128361471b565b915061402e82614ae4565b602082019050919050565b6000614046600e8361471b565b915061405182614b0d565b602082019050919050565b600061406960058361472c565b915061407482614b36565b600582019050919050565b600061408c600f8361471b565b915061409782614b5f565b602082019050919050565b60006140af600d8361471b565b91506140ba82614b88565b602082019050919050565b60006140d260138361471b565b91506140dd82614bb1565b602082019050919050565b60006140f5600d8361471b565b915061410082614bda565b602082019050919050565b60006101c08301600083015184820360008601526141298282613e71565b915050602083015161413e6020860182613d80565b50604083015161415160408601826143ad565b50606083015161416460608601826143ad565b506080830151848203608086015261417c8282613e71565b91505060a083015184820360a08601526141968282613e71565b91505060c083015184820360c08601526141b08282613e71565b91505060e083015184820360e08601526141ca8282613e71565b9150506101008301518482036101008601526141e68282613e71565b9150506101208301516141fd610120860182613e62565b50610140830151614212610140860182613e62565b50610160830151614227610160860182613e62565b5061018083015161423c6101808601826143ad565b506101a08301516142516101a08601826143ad565b508091505092915050565b60006101c083016000830151848203600086015261427a8282613e71565b915050602083015161428f6020860182613d80565b5060408301516142a260408601826143ad565b5060608301516142b560608601826143ad565b50608083015184820360808601526142cd8282613e71565b91505060a083015184820360a08601526142e78282613e71565b91505060c083015184820360c08601526143018282613e71565b91505060e083015184820360e086015261431b8282613e71565b9150506101008301518482036101008601526143378282613e71565b91505061012083015161434e610120860182613e62565b50610140830151614363610140860182613e62565b50610160830151614378610160860182613e62565b5061018083015161438d6101808601826143ad565b506101a08301516143a26101a08601826143ad565b508091505092915050565b6143b6816147dd565b82525050565b6143c5816147dd565b82525050565b60006143d78284613eaa565b915081905092915050565b60006143ed82613efe565b9150819050919050565b600061440282613f67565b9150819050919050565b600061441782613fd0565b9150819050919050565b600061442c8261405c565b9150819050919050565b600060208201905081810360008301526144508184613d8f565b905092915050565b600060208201905081810360008301526144728184613ded565b905092915050565b6000602082019050818103600083015261449381613edb565b9050919050565b600060208201905081810360008301526144b381613f21565b9050919050565b600060208201905081810360008301526144d381613f44565b9050919050565b600060208201905081810360008301526144f381613f8a565b9050919050565b6000602082019050818103600083015261451381613fad565b9050919050565b6000602082019050818103600083015261453381613ff3565b9050919050565b6000602082019050818103600083015261455381614016565b9050919050565b6000602082019050818103600083015261457381614039565b9050919050565b600060208201905081810360008301526145938161407f565b9050919050565b600060208201905081810360008301526145b3816140a2565b9050919050565b600060208201905081810360008301526145d3816140c5565b9050919050565b600060208201905081810360008301526145f3816140e8565b9050919050565b60006020820190508181036000830152614614818461425c565b905092915050565b600060208201905061463160008301846143bc565b92915050565b6000614641614652565b905061464d828261485b565b919050565b6000604051905090565b600067ffffffffffffffff82111561467757614676614933565b5b61468082614962565b9050602081019050919050565b6000819050602082019050919050565b6000819050602082019050919050565b600081519050919050565b600081519050919050565b600081519050919050565b6000602082019050919050565b6000602082019050919050565b600082825260208201905092915050565b600082825260208201905092915050565b600082825260208201905092915050565b600082825260208201905092915050565b600081905092915050565b6000614742826147dd565b915061474d836147dd565b9250827fffffffffffffffffffffffffffffffffffffffffffffffffffffffffffffffff03821115614782576147816148d5565b5b828201905092915050565b6000614798826147bd565b9050919050565b60006147aa826147bd565b9050919050565b60008115159050919050565b600073ffffffffffffffffffffffffffffffffffffffff82169050919050565b6000819050919050565b82818337600083830152505050565b60005b838110156148145780820151818401526020810190506147f9565b83811115614823576000848401525b50505050565b6000600282049050600182168061484157607f821691505b6020821081141561485557614854614904565b5b50919050565b61486482614962565b810181811067ffffffffffffffff8211171561488357614882614933565b5b80604052505050565b6000614897826147dd565b91507fffffffffffffffffffffffffffffffffffffffffffffffffffffffffffffffff8214156148ca576148c96148d5565b5b600182019050919050565b7f4e487b7100000000000000000000000000000000000000000000000000000000600052601160045260246000fd5b7f4e487b7100000000000000000000000000000000000000000000000000000000600052602260045260246000fd5b7f4e487b7100000000000000000000000000000000000000000000000000000000600052604160045260246000fd5b6000601f19601f8301169050919050565b7f6f726465722e6e6f742e65786973740000000000000000000000000000000000600082015250565b7f5072656d69756d00000000000000000000000000000000000000000000000000600082015250565b7f706c616e2e6e6f742e6578697374000000000000000000000000000000000000600082015250565b7f637573746f6d6d65722e6e6f742e617070726f75766564000000000000000000600082015250565b7f646f6e6500000000000000000000000000000000000000000000000000000000600082015250565b7f6e6f2e706c616e732e646566696e656400000000000000000000000000000000600082015250565b7f6e6f742e6f776e65720000000000000000000000000000000000000000000000600082015250565b7f5374616e64617264000000000000000000000000000000000000000000000000600082015250565b7f6a6f622e616c72656164792e7265676973746572656400000000000000000000600082015250565b7f6e6f742e636f6e74726163742e6f776e65720000000000000000000000000000600082015250565b7f6f726465722e6e6f742e646f6e65000000000000000000000000000000000000600082015250565b7f4261736963000000000000000000000000000000000000000000000000000000600082015250565b7f6f726465722e6e6f742e70617965640000000000000000000000000000000000600082015250565b7f696e76616c69642e707269636500000000000000000000000000000000000000600082015250565b7f6a6f622e616c72656164792e6f72646572656400000000000000000000000000600082015250565b7f6a6f622e6e6f742e657869737400000000000000000000000000000000000000600082015250565b614c0c8161478d565b8114614c1757600080fd5b50565b614c238161479f565b8114614c2e57600080fd5b50565b614c3a816147b1565b8114614c4557600080fd5b50565b614c51816147dd565b8114614c5c57600080fd5b5056fea2646970667358221220095b0e85f01020dd55fc5c31c5b119dd9620f65654ef5af0004b99dae914be6364736f6c63430008040033",
  "linkReferences": {},
  "deployedLinkReferences": {}
}