{
	"_format": "hh-sol-artifact-1",
	"contractName": "webThreeSales",
	"sourceName": "contracts/webThreeSales.sol",
	"abi": [
		{
			"inputs": [],
			"stateMutability": "payable",
			"type": "constructor"
		},
		{
			"anonymous": false,
			"inputs": [
				{
					"indexed": true,
					"internalType": "address",
					"name": "payee",
					"type": "address"
				},
				{
					"indexed": false,
					"internalType": "uint256",
					"name": "weiAmount",
					"type": "uint256"
				}
			],
			"name": "Deposited",
			"type": "event"
		},
		{
			"anonymous": false,
			"inputs": [
				{
					"indexed": true,
					"internalType": "address",
					"name": "payee",
					"type": "address"
				},
				{
					"indexed": false,
					"internalType": "uint256",
					"name": "weiAmmount",
					"type": "uint256"
				},
				{
					"indexed": false,
					"internalType": "string",
					"name": "jobId",
					"type": "string"
				}
			],
			"name": "Refunded",
			"type": "event"
		},
		{
			"anonymous": false,
			"inputs": [
				{
					"indexed": true,
					"internalType": "address",
					"name": "payee",
					"type": "address"
				},
				{
					"indexed": false,
					"internalType": "uint256",
					"name": "weiAmount",
					"type": "uint256"
				}
			],
			"name": "Withdrawn",
			"type": "event"
		},
		{
			"inputs": [
				{
					"internalType": "address",
					"name": "user",
					"type": "address"
				}
			],
			"name": "addAdmin",
			"outputs": [],
			"stateMutability": "nonpayable",
			"type": "function"
		},
		{
			"inputs": [
				{
					"internalType": "string",
					"name": "job_id",
					"type": "string"
				},
				{
					"internalType": "uint256",
					"name": "ordered_at",
					"type": "uint256"
				},
				{
					"internalType": "string",
					"name": "action",
					"type": "string"
				},
				{
					"internalType": "bool",
					"name": "fromCustomer",
					"type": "bool"
				},
				{
					"internalType": "string",
					"name": "decline_reason",
					"type": "string"
				},
				{
					"internalType": "address payable",
					"name": "customer",
					"type": "address"
				}
			],
			"name": "approveOrDeclineWork",
			"outputs": [],
			"stateMutability": "nonpayable",
			"type": "function"
		},
		{
			"inputs": [
				{
					"internalType": "string",
					"name": "job_id",
					"type": "string"
				},
				{
					"internalType": "uint256",
					"name": "basic_price",
					"type": "uint256"
				},
				{
					"internalType": "uint256",
					"name": "premium_price",
					"type": "uint256"
				},
				{
					"internalType": "uint256",
					"name": "standard_price",
					"type": "uint256"
				}
			],
			"name": "createJob",
			"outputs": [],
			"stateMutability": "nonpayable",
			"type": "function"
		},
		{
			"inputs": [
				{
					"internalType": "string",
					"name": "job_id",
					"type": "string"
				},
				{
					"internalType": "address",
					"name": "customer",
					"type": "address"
				},
				{
					"internalType": "uint256",
					"name": "ordered_at",
					"type": "uint256"
				},
				{
					"internalType": "string",
					"name": "ipfs_hash",
					"type": "string"
				}
			],
			"name": "finishJob",
			"outputs": [],
			"stateMutability": "nonpayable",
			"type": "function"
		},
		{
			"inputs": [],
			"name": "getAddresses",
			"outputs": [
				{
					"internalType": "address[]",
					"name": "",
					"type": "address[]"
				}
			],
			"stateMutability": "view",
			"type": "function"
		},
		{
			"inputs": [],
			"name": "getOrdered",
			"outputs": [
				{
					"components": [
						{
							"internalType": "string",
							"name": "api_id",
							"type": "string"
						},
						{
							"internalType": "address",
							"name": "worker_address",
							"type": "address"
						},
						{
							"internalType": "address",
							"name": "ordered_by",
							"type": "address"
						},
						{
							"internalType": "uint256",
							"name": "price",
							"type": "uint256"
						},
						{
							"internalType": "uint256",
							"name": "delivery_day",
							"type": "uint256"
						},
						{
							"internalType": "string",
							"name": "order_title",
							"type": "string"
						},
						{
							"internalType": "string",
							"name": "order_desc",
							"type": "string"
						},
						{
							"internalType": "string",
							"name": "plan_title",
							"type": "string"
						},
						{
							"internalType": "string",
							"name": "plan_desc",
							"type": "string"
						},
						{
							"internalType": "string",
							"name": "user_info",
							"type": "string"
						},
						{
							"internalType": "string",
							"name": "status",
							"type": "string"
						},
						{
							"internalType": "string",
							"name": "ipfs_hash",
							"type": "string"
						},
						{
							"internalType": "string",
							"name": "decline_reason",
							"type": "string"
						},
						{
							"internalType": "bool",
							"name": "customer_accepted",
							"type": "bool"
						},
						{
							"internalType": "bool",
							"name": "accepted",
							"type": "bool"
						},
						{
							"internalType": "uint256",
							"name": "accepted_at",
							"type": "uint256"
						},
						{
							"internalType": "uint256",
							"name": "ordered_at",
							"type": "uint256"
						}
					],
					"internalType": "struct Order[]",
					"name": "",
					"type": "tuple[]"
				}
			],
			"stateMutability": "view",
			"type": "function"
		},
		{
			"inputs": [],
			"name": "getOrders",
			"outputs": [
				{
					"components": [
						{
							"internalType": "string",
							"name": "api_id",
							"type": "string"
						},
						{
							"internalType": "address",
							"name": "worker_address",
							"type": "address"
						},
						{
							"internalType": "address",
							"name": "ordered_by",
							"type": "address"
						},
						{
							"internalType": "uint256",
							"name": "price",
							"type": "uint256"
						},
						{
							"internalType": "uint256",
							"name": "delivery_day",
							"type": "uint256"
						},
						{
							"internalType": "string",
							"name": "order_title",
							"type": "string"
						},
						{
							"internalType": "string",
							"name": "order_desc",
							"type": "string"
						},
						{
							"internalType": "string",
							"name": "plan_title",
							"type": "string"
						},
						{
							"internalType": "string",
							"name": "plan_desc",
							"type": "string"
						},
						{
							"internalType": "string",
							"name": "user_info",
							"type": "string"
						},
						{
							"internalType": "string",
							"name": "status",
							"type": "string"
						},
						{
							"internalType": "string",
							"name": "ipfs_hash",
							"type": "string"
						},
						{
							"internalType": "string",
							"name": "decline_reason",
							"type": "string"
						},
						{
							"internalType": "bool",
							"name": "customer_accepted",
							"type": "bool"
						},
						{
							"internalType": "bool",
							"name": "accepted",
							"type": "bool"
						},
						{
							"internalType": "uint256",
							"name": "accepted_at",
							"type": "uint256"
						},
						{
							"internalType": "uint256",
							"name": "ordered_at",
							"type": "uint256"
						}
					],
					"internalType": "struct Order[]",
					"name": "",
					"type": "tuple[]"
				}
			],
			"stateMutability": "view",
			"type": "function"
		},
		{
			"inputs": [],
			"name": "isAdmin",
			"outputs": [
				{
					"internalType": "bool",
					"name": "",
					"type": "bool"
				}
			],
			"stateMutability": "view",
			"type": "function"
		},
		{
			"inputs": [
				{
					"internalType": "string",
					"name": "api_id",
					"type": "string"
				},
				{
					"internalType": "uint256",
					"name": "delivery_day",
					"type": "uint256"
				},
				{
					"internalType": "string",
					"name": "order_title",
					"type": "string"
				},
				{
					"internalType": "string",
					"name": "order_desc",
					"type": "string"
				},
				{
					"internalType": "string",
					"name": "plan_title",
					"type": "string"
				},
				{
					"internalType": "string",
					"name": "plan_desc",
					"type": "string"
				},
				{
					"internalType": "string",
					"name": "user_info",
					"type": "string"
				}
			],
			"name": "postOrder",
			"outputs": [],
			"stateMutability": "payable",
			"type": "function"
		},
		{
			"inputs": [
				{
					"internalType": "string",
					"name": "job_id",
					"type": "string"
				},
				{
					"internalType": "address payable",
					"name": "customer",
					"type": "address"
				},
				{
					"internalType": "uint256",
					"name": "ordered_at",
					"type": "uint256"
				},
				{
					"internalType": "bool",
					"name": "refundCustomer",
					"type": "bool"
				}
			],
			"name": "refundPart",
			"outputs": [],
			"stateMutability": "nonpayable",
			"type": "function"
		},
		{
			"inputs": [
				{
					"internalType": "address",
					"name": "user",
					"type": "address"
				}
			],
			"name": "removeAdmin",
			"outputs": [],
			"stateMutability": "nonpayable",
			"type": "function"
		}
	],
	"bytecode": "0x6080604052336000806101000a81548173ffffffffffffffffffffffffffffffffffffffff021916908373ffffffffffffffffffffffffffffffffffffffff16021790555060018060003373ffffffffffffffffffffffffffffffffffffffff1673ffffffffffffffffffffffffffffffffffffffff16815260200190815260200160002060006101000a81548160ff021916908315150217905550615e9d806100aa6000396000f3fe60806040526004361061009c5760003560e01c806370480275116100645780637048027514610163578063a39fac121461018c578063b5eb16d2146101b7578063b6db75a0146101e0578063dd66cb261461020b578063e864f08d146102365761009c565b806304998c5c146100a157806306e5f6b2146100ca5780631785f53c146100f35780632e2dc43e1461011c5780636b00038a14610147575b600080fd5b3480156100ad57600080fd5b506100c860048036038101906100c39190614c12565b61025f565b005b3480156100d657600080fd5b506100f160048036038101906100ec9190614905565b61047f565b005b3480156100ff57600080fd5b5061011a600480360381019061011591906148dc565b610d8a565b005b34801561012857600080fd5b50610131610f95565b60405161013e9190615403565b60405180910390f35b610161600480360381019061015c9190614ae4565b611931565b005b34801561016f57600080fd5b5061018a600480360381019061018591906148dc565b612490565b005b34801561019857600080fd5b506101a161260b565b6040516101ae91906153e1565b60405180910390f35b3480156101c357600080fd5b506101de60048036038101906101d99190614a13565b612699565b005b3480156101ec57600080fd5b506101f56137ed565b6040516102029190615425565b60405180910390f35b34801561021757600080fd5b50610220613841565b60405161022d9190615403565b60405180910390f35b34801561024257600080fd5b5061025d60048036038101906102589190614980565b613f0a565b005b600073ffffffffffffffffffffffffffffffffffffffff16600385604051610287919061538b565b908152602001604051809103902060009054906101000a900473ffffffffffffffffffffffffffffffffffffffff1673ffffffffffffffffffffffffffffffffffffffff161461030c576040517f08c379a000000000000000000000000000000000000000000000000000000000815260040161030390615500565b60405180910390fd5b600083118061031b5750600082115b806103265750600081115b610365576040517f08c379a000000000000000000000000000000000000000000000000000000000815260040161035c906154c0565b60405180910390fd5b33600385604051610376919061538b565b908152602001604051809103902060006101000a81548173ffffffffffffffffffffffffffffffffffffffff021916908373ffffffffffffffffffffffffffffffffffffffff160217905550826004856040516103d3919061538b565b90815260200160405180910390206040516103ed906153cc565b90815260200160405180910390208190555081600485604051610410919061538b565b908152602001604051809103902060405161042a906153a2565b9081526020016040518091039020819055508060048560405161044d919061538b565b9081526020016040518091039020604051610467906153b7565b90815260200160405180910390208190555050505050565b83836000805b600260008473ffffffffffffffffffffffffffffffffffffffff1673ffffffffffffffffffffffffffffffffffffffff1681526020019081526020016000208054905081101561060a576105e9600260008573ffffffffffffffffffffffffffffffffffffffff1673ffffffffffffffffffffffffffffffffffffffff1681526020019081526020016000208281548110610549577f4e487b7100000000000000000000000000000000000000000000000000000000600052603260045260246000fd5b9060005260206000209060100201600001805461056590615912565b80601f016020809104026020016040519081016040528092919081815260200182805461059190615912565b80156105de5780601f106105b3576101008083540402835291602001916105de565b820191906000526020600020905b8154815290600101906020018083116105c157829003601f168201915b5050505050856141a5565b156105f7576001915061060a565b808061060290615975565b915050610485565b506001151581151514610652576040517f08c379a000000000000000000000000000000000000000000000000000000000815260040161064990615440565b60405180910390fd5b600061065f8888886141fe565b90506106696137ed565b6106a8576040517f08c379a000000000000000000000000000000000000000000000000000000000815260040161069f906154a0565b60405180910390fd5b60001515600260008973ffffffffffffffffffffffffffffffffffffffff1673ffffffffffffffffffffffffffffffffffffffff1681526020019081526020016000208281548110610723577f4e487b7100000000000000000000000000000000000000000000000000000000600052603260045260246000fd5b9060005260206000209060100201600d0160009054906101000a900460ff16151514610784576040517f08c379a000000000000000000000000000000000000000000000000000000000815260040161077b90615540565b60405180910390fd5b6108d3600260003373ffffffffffffffffffffffffffffffffffffffff1673ffffffffffffffffffffffffffffffffffffffff16815260200190815260200160002082815481106107fe577f4e487b7100000000000000000000000000000000000000000000000000000000600052603260045260246000fd5b9060005260206000209060100201600a01805461081a90615912565b80601f016020809104026020016040519081016040528092919081815260200182805461084690615912565b80156108935780601f1061086857610100808354040283529160200191610893565b820191906000526020600020905b81548152906001019060200180831161087657829003601f168201915b50505050506040518060400160405280601181526020017f637573746f6d65725f6465636c696e65640000000000000000000000000000008152506141a5565b610912576040517f08c379a0000000000000000000000000000000000000000000000000000000008152600401610909906155a0565b60405180910390fd5b6000600260008973ffffffffffffffffffffffffffffffffffffffff1673ffffffffffffffffffffffffffffffffffffffff168152602001908152602001600020828154811061098b577f4e487b7100000000000000000000000000000000000000000000000000000000600052603260045260246000fd5b90600052602060002090601002016003015490508515610ac8578773ffffffffffffffffffffffffffffffffffffffff166108fc829081150290604051600060405180830381858888f193505050501580156109eb573d6000803e3d6000fd5b508773ffffffffffffffffffffffffffffffffffffffff167fca15137148c4fd79778d6f6a3d6833d6bbc140f167d9eb76644af5763d93c22182600260008c73ffffffffffffffffffffffffffffffffffffffff1673ffffffffffffffffffffffffffffffffffffffff1681526020019081526020016000208581548110610a9c577f4e487b7100000000000000000000000000000000000000000000000000000000600052603260045260246000fd5b9060005260206000209060100201600001604051610abb9291906156db565b60405180910390a2610c0c565b6000600260008a73ffffffffffffffffffffffffffffffffffffffff1673ffffffffffffffffffffffffffffffffffffffff1681526020019081526020016000208381548110610b41577f4e487b7100000000000000000000000000000000000000000000000000000000600052603260045260246000fd5b906000526020600020906010020160010160009054906101000a900473ffffffffffffffffffffffffffffffffffffffff1690508073ffffffffffffffffffffffffffffffffffffffff166108fc839081150290604051600060405180830381858888f19350505050158015610bbb573d6000803e3d6000fd5b508073ffffffffffffffffffffffffffffffffffffffff167f7084f5476618d8e60b11ef0d7d3f06914655adb8793e28ff7f018d4c76d505d583604051610c0291906156c0565b60405180910390a2505b6040518060400160405280600481526020017f646f6e6500000000000000000000000000000000000000000000000000000000815250600260008a73ffffffffffffffffffffffffffffffffffffffff1673ffffffffffffffffffffffffffffffffffffffff1681526020019081526020016000208381548110610cb9577f4e487b7100000000000000000000000000000000000000000000000000000000600052603260045260246000fd5b9060005260206000209060100201600a019080519060200190610cdd9291906146c9565b506001600260008a73ffffffffffffffffffffffffffffffffffffffff1673ffffffffffffffffffffffffffffffffffffffff1681526020019081526020016000208381548110610d57577f4e487b7100000000000000000000000000000000000000000000000000000000600052603260045260246000fd5b9060005260206000209060100201600d0160006101000a81548160ff021916908315150217905550505050505050505050565b60008054906101000a900473ffffffffffffffffffffffffffffffffffffffff1673ffffffffffffffffffffffffffffffffffffffff168173ffffffffffffffffffffffffffffffffffffffff161415610e19576040517f08c379a0000000000000000000000000000000000000000000000000000000008152600401610e10906155c0565b60405180910390fd5b60008054906101000a900473ffffffffffffffffffffffffffffffffffffffff1673ffffffffffffffffffffffffffffffffffffffff163373ffffffffffffffffffffffffffffffffffffffff1614610ea7576040517f08c379a0000000000000000000000000000000000000000000000000000000008152600401610e9e90615680565b60405180910390fd5b60011515600160008373ffffffffffffffffffffffffffffffffffffffff1673ffffffffffffffffffffffffffffffffffffffff16815260200190815260200160002060009054906101000a900460ff16151514610f3a576040517f08c379a0000000000000000000000000000000000000000000000000000000008152600401610f3190615580565b60405180910390fd5b6000600160008373ffffffffffffffffffffffffffffffffffffffff1673ffffffffffffffffffffffffffffffffffffffff16815260200190815260200160002060006101000a81548160ff02191690831515021790555050565b6060600061102b600233600680548060200260200160405190810160405280929190818152602001828054801561102157602002820191906000526020600020905b8160009054906101000a900473ffffffffffffffffffffffffffffffffffffffff1673ffffffffffffffffffffffffffffffffffffffff1681526020019060010190808311610fd7575b5050505050614423565b905060008167ffffffffffffffff81111561106f577f4e487b7100000000000000000000000000000000000000000000000000000000600052604160045260246000fd5b6040519080825280602002602001820160405280156110a857816020015b61109561474f565b81526020019060019003908161108d5790505b5090506000805b60068054905081101561192757600060026000600684815481106110fc577f4e487b7100000000000000000000000000000000000000000000000000000000600052603260045260246000fd5b9060005260206000200160009054906101000a900473ffffffffffffffffffffffffffffffffffffffff1673ffffffffffffffffffffffffffffffffffffffff1673ffffffffffffffffffffffffffffffffffffffff168152602001908152602001600020805480602002602001604051908101604052809291908181526020016000905b828210156117e05783829060005260206000209060100201604051806102200160405290816000820180546111b590615912565b80601f01602080910402602001604051908101604052809291908181526020018280546111e190615912565b801561122e5780601f106112035761010080835404028352916020019161122e565b820191906000526020600020905b81548152906001019060200180831161121157829003601f168201915b505050505081526020016001820160009054906101000a900473ffffffffffffffffffffffffffffffffffffffff1673ffffffffffffffffffffffffffffffffffffffff1673ffffffffffffffffffffffffffffffffffffffff1681526020016002820160009054906101000a900473ffffffffffffffffffffffffffffffffffffffff1673ffffffffffffffffffffffffffffffffffffffff1673ffffffffffffffffffffffffffffffffffffffff168152602001600382015481526020016004820154815260200160058201805461130790615912565b80601f016020809104026020016040519081016040528092919081815260200182805461133390615912565b80156113805780601f1061135557610100808354040283529160200191611380565b820191906000526020600020905b81548152906001019060200180831161136357829003601f168201915b5050505050815260200160068201805461139990615912565b80601f01602080910402602001604051908101604052809291908181526020018280546113c590615912565b80156114125780601f106113e757610100808354040283529160200191611412565b820191906000526020600020905b8154815290600101906020018083116113f557829003601f168201915b5050505050815260200160078201805461142b90615912565b80601f016020809104026020016040519081016040528092919081815260200182805461145790615912565b80156114a45780601f10611479576101008083540402835291602001916114a4565b820191906000526020600020905b81548152906001019060200180831161148757829003601f168201915b505050505081526020016008820180546114bd90615912565b80601f01602080910402602001604051908101604052809291908181526020018280546114e990615912565b80156115365780601f1061150b57610100808354040283529160200191611536565b820191906000526020600020905b81548152906001019060200180831161151957829003601f168201915b5050505050815260200160098201805461154f90615912565b80601f016020809104026020016040519081016040528092919081815260200182805461157b90615912565b80156115c85780601f1061159d576101008083540402835291602001916115c8565b820191906000526020600020905b8154815290600101906020018083116115ab57829003601f168201915b50505050508152602001600a820180546115e190615912565b80601f016020809104026020016040519081016040528092919081815260200182805461160d90615912565b801561165a5780601f1061162f5761010080835404028352916020019161165a565b820191906000526020600020905b81548152906001019060200180831161163d57829003601f168201915b50505050508152602001600b8201805461167390615912565b80601f016020809104026020016040519081016040528092919081815260200182805461169f90615912565b80156116ec5780601f106116c1576101008083540402835291602001916116ec565b820191906000526020600020905b8154815290600101906020018083116116cf57829003601f168201915b50505050508152602001600c8201805461170590615912565b80601f016020809104026020016040519081016040528092919081815260200182805461173190615912565b801561177e5780601f106117535761010080835404028352916020019161177e565b820191906000526020600020905b81548152906001019060200180831161176157829003601f168201915b50505050508152602001600d820160009054906101000a900460ff16151515158152602001600d820160019054906101000a900460ff16151515158152602001600e8201548152602001600f8201548152505081526020019060010190611181565b50505050905060005b8151811015611912573373ffffffffffffffffffffffffffffffffffffffff16828281518110611842577f4e487b7100000000000000000000000000000000000000000000000000000000600052603260045260246000fd5b60200260200101516020015173ffffffffffffffffffffffffffffffffffffffff1614156118ff578181815181106118a3577f4e487b7100000000000000000000000000000000000000000000000000000000600052603260045260246000fd5b60200260200101518585815181106118e4577f4e487b7100000000000000000000000000000000000000000000000000000000600052603260045260246000fd5b60200260200101819052506001846118fc9190615820565b93505b808061190a90615975565b9150506117e9565b5050808061191f90615975565b9150506110af565b5081935050505090565b866000805b600260003373ffffffffffffffffffffffffffffffffffffffff1673ffffffffffffffffffffffffffffffffffffffff16815260200190815260200160002080549050811015611d6957611a9a600260003373ffffffffffffffffffffffffffffffffffffffff1673ffffffffffffffffffffffffffffffffffffffff16815260200190815260200160002082815481106119fa577f4e487b7100000000000000000000000000000000000000000000000000000000600052603260045260246000fd5b90600052602060002090601002016000018054611a1690615912565b80601f0160208091040260200160405190810160405280929190818152602001828054611a4290615912565b8015611a8f5780601f10611a6457610100808354040283529160200191611a8f565b820191906000526020600020905b815481529060010190602001808311611a7257829003601f168201915b5050505050846141a5565b15611d5657611bee600260003373ffffffffffffffffffffffffffffffffffffffff1673ffffffffffffffffffffffffffffffffffffffff1681526020019081526020016000208281548110611b19577f4e487b7100000000000000000000000000000000000000000000000000000000600052603260045260246000fd5b9060005260206000209060100201600a018054611b3590615912565b80601f0160208091040260200160405190810160405280929190818152602001828054611b6190615912565b8015611bae5780601f10611b8357610100808354040283529160200191611bae565b820191906000526020600020905b815481529060010190602001808311611b9157829003601f168201915b50505050506040518060400160405280600481526020017f646f6e65000000000000000000000000000000000000000000000000000000008152506141a5565b158015611d475750611d45600260003373ffffffffffffffffffffffffffffffffffffffff1673ffffffffffffffffffffffffffffffffffffffff1681526020019081526020016000208281548110611c70577f4e487b7100000000000000000000000000000000000000000000000000000000600052603260045260246000fd5b9060005260206000209060100201600a018054611c8c90615912565b80601f0160208091040260200160405190810160405280929190818152602001828054611cb890615912565b8015611d055780601f10611cda57610100808354040283529160200191611d05565b820191906000526020600020905b815481529060010190602001808311611ce857829003601f168201915b50505050506040518060400160405280600881526020017f6465636c696e65640000000000000000000000000000000000000000000000008152506141a5565b155b15611d555760019150611d69565b5b8080611d6190615975565b915050611936565b506000151581151514611db1576040517f08c379a0000000000000000000000000000000000000000000000000000000008152600401611da890615640565b60405180910390fd5b600073ffffffffffffffffffffffffffffffffffffffff1660038a604051611dd9919061538b565b908152602001604051809103902060009054906101000a900473ffffffffffffffffffffffffffffffffffffffff1673ffffffffffffffffffffffffffffffffffffffff161415611e5f576040517f08c379a0000000000000000000000000000000000000000000000000000000008152600401611e5690615660565b60405180910390fd5b600060048a604051611e71919061538b565b908152602001604051809103902086604051611e8d919061538b565b9081526020016040518091039020541415611edd576040517f08c379a0000000000000000000000000000000000000000000000000000000008152600401611ed490615460565b60405180910390fd5b600489604051611eed919061538b565b908152602001604051809103902085604051611f09919061538b565b9081526020016040518091039020543414611f59576040517f08c379a0000000000000000000000000000000000000000000000000000000008152600401611f5090615620565b60405180910390fd5b60006040518061022001604052808b815260200160038c604051611f7d919061538b565b908152602001604051809103902060009054906101000a900473ffffffffffffffffffffffffffffffffffffffff1673ffffffffffffffffffffffffffffffffffffffff1681526020013373ffffffffffffffffffffffffffffffffffffffff16815260200160048c604051611ff3919061538b565b90815260200160405180910390208860405161200f919061538b565b90815260200160405180910390205481526020018a81526020018981526020018881526020018781526020018681526020018581526020016040518060400160405280600381526020017f5746410000000000000000000000000000000000000000000000000000000000815250815260200160405180602001604052806000815250815260200160405180602001604052806000815250815260200160001515815260200160001515815260200160008152602001428152509050600260003373ffffffffffffffffffffffffffffffffffffffff1673ffffffffffffffffffffffffffffffffffffffff16815260200190815260200160002081908060018154018082558091505060019003906000526020600020906010020160009091909190915060008201518160000190805190602001906121509291906146c9565b5060208201518160010160006101000a81548173ffffffffffffffffffffffffffffffffffffffff021916908373ffffffffffffffffffffffffffffffffffffffff16021790555060408201518160020160006101000a81548173ffffffffffffffffffffffffffffffffffffffff021916908373ffffffffffffffffffffffffffffffffffffffff160217905550606082015181600301556080820151816004015560a082015181600501908051906020019061220f9291906146c9565b5060c082015181600601908051906020019061222c9291906146c9565b5060e08201518160070190805190602001906122499291906146c9565b506101008201518160080190805190602001906122679291906146c9565b506101208201518160090190805190602001906122859291906146c9565b5061014082015181600a0190805190602001906122a39291906146c9565b5061016082015181600b0190805190602001906122c19291906146c9565b5061018082015181600c0190805190602001906122df9291906146c9565b506101a082015181600d0160006101000a81548160ff0219169083151502179055506101c082015181600d0160016101000a81548160ff0219169083151502179055506101e082015181600e015561020082015181600f015550506123ca3360068054806020026020016040519081016040528092919081815260200182805480156123c057602002820191906000526020600020905b8160009054906101000a900473ffffffffffffffffffffffffffffffffffffffff1673ffffffffffffffffffffffffffffffffffffffff1681526020019060010190808311612376575b505050505061461f565b612432576006339080600181540180825580915050600190039060005260206000200160009091909190916101000a81548173ffffffffffffffffffffffffffffffffffffffff021916908373ffffffffffffffffffffffffffffffffffffffff1602179055505b3373ffffffffffffffffffffffffffffffffffffffff167f2da466a7b24304f47e87fa2e1e5a81b9831ce54fec19055ce277ca2f39ba42c4826060015160405161247c91906156c0565b60405180910390a250505050505050505050565b60008054906101000a900473ffffffffffffffffffffffffffffffffffffffff1673ffffffffffffffffffffffffffffffffffffffff163373ffffffffffffffffffffffffffffffffffffffff161461251e576040517f08c379a000000000000000000000000000000000000000000000000000000000815260040161251590615680565b60405180910390fd5b60001515600160008373ffffffffffffffffffffffffffffffffffffffff1673ffffffffffffffffffffffffffffffffffffffff16815260200190815260200160002060009054906101000a900460ff161515146125b1576040517f08c379a00000000000000000000000000000000000000000000000000000000081526004016125a890615600565b60405180910390fd5b60018060008373ffffffffffffffffffffffffffffffffffffffff1673ffffffffffffffffffffffffffffffffffffffff16815260200190815260200160002060006101000a81548160ff02191690831515021790555050565b6060600680548060200260200160405190810160405280929190818152602001828054801561268f57602002820191906000526020600020905b8160009054906101000a900473ffffffffffffffffffffffffffffffffffffffff1673ffffffffffffffffffffffffffffffffffffffff1681526020019060010190808311612645575b5050505050905090565b85816000805b600260008473ffffffffffffffffffffffffffffffffffffffff1673ffffffffffffffffffffffffffffffffffffffff1681526020019081526020016000208054905081101561282457612803600260008573ffffffffffffffffffffffffffffffffffffffff1673ffffffffffffffffffffffffffffffffffffffff1681526020019081526020016000208281548110612763577f4e487b7100000000000000000000000000000000000000000000000000000000600052603260045260246000fd5b9060005260206000209060100201600001805461277f90615912565b80601f01602080910402602001604051908101604052809291908181526020018280546127ab90615912565b80156127f85780601f106127cd576101008083540402835291602001916127f8565b820191906000526020600020905b8154815290600101906020018083116127db57829003601f168201915b5050505050856141a5565b156128115760019150612824565b808061281c90615975565b91505061269f565b50600115158115151461286c576040517f08c379a000000000000000000000000000000000000000000000000000000000815260040161286390615440565b60405180910390fd5b60006128798a338b6141fe565b905060006128bc896040518060400160405280600681526020017f61636365707400000000000000000000000000000000000000000000000000008152506141a5565b905060006128ff8a6040518060400160405280600781526020017f6465636c696e65000000000000000000000000000000000000000000000000008152506141a5565b9050818061290a5750805b612949576040517f08c379a0000000000000000000000000000000000000000000000000000000008152600401612940906155e0565b60405180910390fd5b8815613024573373ffffffffffffffffffffffffffffffffffffffff16600260003373ffffffffffffffffffffffffffffffffffffffff1673ffffffffffffffffffffffffffffffffffffffff16815260200190815260200160002084815481106129dd577f4e487b7100000000000000000000000000000000000000000000000000000000600052603260045260246000fd5b906000526020600020906010020160020160009054906101000a900473ffffffffffffffffffffffffffffffffffffffff1673ffffffffffffffffffffffffffffffffffffffff1614612a65576040517f08c379a0000000000000000000000000000000000000000000000000000000008152600401612a5c90615480565b60405180910390fd5b612bb4600260003373ffffffffffffffffffffffffffffffffffffffff1673ffffffffffffffffffffffffffffffffffffffff1681526020019081526020016000208481548110612adf577f4e487b7100000000000000000000000000000000000000000000000000000000600052603260045260246000fd5b9060005260206000209060100201600a018054612afb90615912565b80601f0160208091040260200160405190810160405280929190818152602001828054612b2790615912565b8015612b745780601f10612b4957610100808354040283529160200191612b74565b820191906000526020600020905b815481529060010190602001808311612b5757829003601f168201915b50505050506040518060400160405280600481526020017f646f6e65000000000000000000000000000000000000000000000000000000008152506141a5565b612bf3576040517f08c379a0000000000000000000000000000000000000000000000000000000008152600401612bea90615560565b60405180910390fd5b60001515600260003373ffffffffffffffffffffffffffffffffffffffff1673ffffffffffffffffffffffffffffffffffffffff1681526020019081526020016000208481548110612c6e577f4e487b7100000000000000000000000000000000000000000000000000000000600052603260045260246000fd5b9060005260206000209060100201600d0160009054906101000a900460ff16151514612ccf576040517f08c379a0000000000000000000000000000000000000000000000000000000008152600401612cc6906156a0565b60405180910390fd5b8115612f4c576001600260003373ffffffffffffffffffffffffffffffffffffffff1673ffffffffffffffffffffffffffffffffffffffff1681526020019081526020016000208481548110612d4e577f4e487b7100000000000000000000000000000000000000000000000000000000600052603260045260246000fd5b9060005260206000209060100201600d0160006101000a81548160ff0219169083151502179055506000600260003373ffffffffffffffffffffffffffffffffffffffff1673ffffffffffffffffffffffffffffffffffffffff1681526020019081526020016000208481548110612def577f4e487b7100000000000000000000000000000000000000000000000000000000600052603260045260246000fd5b90600052602060002090601002016003015490506000600260003373ffffffffffffffffffffffffffffffffffffffff1673ffffffffffffffffffffffffffffffffffffffff1681526020019081526020016000208581548110612e7c577f4e487b7100000000000000000000000000000000000000000000000000000000600052603260045260246000fd5b906000526020600020906010020160010160009054906101000a900473ffffffffffffffffffffffffffffffffffffffff1690508073ffffffffffffffffffffffffffffffffffffffff166108fc839081150290604051600060405180830381858888f19350505050158015612ef6573d6000803e3d6000fd5b508073ffffffffffffffffffffffffffffffffffffffff167f7084f5476618d8e60b11ef0d7d3f06914655adb8793e28ff7f018d4c76d505d583604051612f3d91906156c0565b60405180910390a2505061301f565b6040518060400160405280601181526020017f637573746f6d65722e6465636c696e6564000000000000000000000000000000815250600260003373ffffffffffffffffffffffffffffffffffffffff1673ffffffffffffffffffffffffffffffffffffffff1681526020019081526020016000208481548110612ff9577f4e487b7100000000000000000000000000000000000000000000000000000000600052603260045260246000fd5b9060005260206000209060100201600a01908051906020019061301d9291906146c9565b505b6137df565b613173600260008973ffffffffffffffffffffffffffffffffffffffff1673ffffffffffffffffffffffffffffffffffffffff168152602001908152602001600020848154811061309e577f4e487b7100000000000000000000000000000000000000000000000000000000600052603260045260246000fd5b9060005260206000209060100201600a0180546130ba90615912565b80601f01602080910402602001604051908101604052809291908181526020018280546130e690615912565b80156131335780601f1061310857610100808354040283529160200191613133565b820191906000526020600020905b81548152906001019060200180831161311657829003601f168201915b50505050506040518060400160405280600881526020017f6465636c696e65640000000000000000000000000000000000000000000000008152506141a5565b1580156132cc57506132ca600260008973ffffffffffffffffffffffffffffffffffffffff1673ffffffffffffffffffffffffffffffffffffffff16815260200190815260200160002084815481106131f5577f4e487b7100000000000000000000000000000000000000000000000000000000600052603260045260246000fd5b9060005260206000209060100201600a01805461321190615912565b80601f016020809104026020016040519081016040528092919081815260200182805461323d90615912565b801561328a5780601f1061325f5761010080835404028352916020019161328a565b820191906000526020600020905b81548152906001019060200180831161326d57829003601f168201915b50505050506040518060400160405280600b81526020017f696e2e70726f67726573730000000000000000000000000000000000000000008152506141a5565b155b61330b576040517f08c379a000000000000000000000000000000000000000000000000000000000815260040161330290615520565b60405180910390fd5b3373ffffffffffffffffffffffffffffffffffffffff16600260008973ffffffffffffffffffffffffffffffffffffffff1673ffffffffffffffffffffffffffffffffffffffff1681526020019081526020016000208481548110613399577f4e487b7100000000000000000000000000000000000000000000000000000000600052603260045260246000fd5b906000526020600020906010020160010160009054906101000a900473ffffffffffffffffffffffffffffffffffffffff1673ffffffffffffffffffffffffffffffffffffffff1614613421576040517f08c379a0000000000000000000000000000000000000000000000000000000008152600401613418906154e0565b60405180910390fd5b811561359f576040518060400160405280600b81526020017f696e2e70726f6772657373000000000000000000000000000000000000000000815250600260008973ffffffffffffffffffffffffffffffffffffffff1673ffffffffffffffffffffffffffffffffffffffff16815260200190815260200160002084815481106134d4577f4e487b7100000000000000000000000000000000000000000000000000000000600052603260045260246000fd5b9060005260206000209060100201600a0190805190602001906134f89291906146c9565b506001600260008973ffffffffffffffffffffffffffffffffffffffff1673ffffffffffffffffffffffffffffffffffffffff1681526020019081526020016000208481548110613572577f4e487b7100000000000000000000000000000000000000000000000000000000600052603260045260246000fd5b9060005260206000209060100201600d0160016101000a81548160ff0219169083151502179055506137de565b8673ffffffffffffffffffffffffffffffffffffffff166108fc600260008a73ffffffffffffffffffffffffffffffffffffffff1673ffffffffffffffffffffffffffffffffffffffff1681526020019081526020016000208581548110613630577f4e487b7100000000000000000000000000000000000000000000000000000000600052603260045260246000fd5b9060005260206000209060100201600301549081150290604051600060405180830381858888f1935050505015801561366d573d6000803e3d6000fd5b5087600260008973ffffffffffffffffffffffffffffffffffffffff1673ffffffffffffffffffffffffffffffffffffffff16815260200190815260200160002084815481106136e6577f4e487b7100000000000000000000000000000000000000000000000000000000600052603260045260246000fd5b9060005260206000209060100201600c01908051906020019061370a9291906146c9565b506040518060400160405280600881526020017f6465636c696e6564000000000000000000000000000000000000000000000000815250600260008973ffffffffffffffffffffffffffffffffffffffff1673ffffffffffffffffffffffffffffffffffffffff16815260200190815260200160002084815481106137b8577f4e487b7100000000000000000000000000000000000000000000000000000000600052603260045260246000fd5b9060005260206000209060100201600a0190805190602001906137dc9291906146c9565b505b5b505050505050505050505050565b6000600160003373ffffffffffffffffffffffffffffffffffffffff1673ffffffffffffffffffffffffffffffffffffffff16815260200190815260200160002060009054906101000a900460ff16905090565b6060600260003373ffffffffffffffffffffffffffffffffffffffff1673ffffffffffffffffffffffffffffffffffffffff168152602001908152602001600020805480602002602001604051908101604052809291908181526020016000905b82821015613f015783829060005260206000209060100201604051806102200160405290816000820180546138d690615912565b80601f016020809104026020016040519081016040528092919081815260200182805461390290615912565b801561394f5780601f106139245761010080835404028352916020019161394f565b820191906000526020600020905b81548152906001019060200180831161393257829003601f168201915b505050505081526020016001820160009054906101000a900473ffffffffffffffffffffffffffffffffffffffff1673ffffffffffffffffffffffffffffffffffffffff1673ffffffffffffffffffffffffffffffffffffffff1681526020016002820160009054906101000a900473ffffffffffffffffffffffffffffffffffffffff1673ffffffffffffffffffffffffffffffffffffffff1673ffffffffffffffffffffffffffffffffffffffff1681526020016003820154815260200160048201548152602001600582018054613a2890615912565b80601f0160208091040260200160405190810160405280929190818152602001828054613a5490615912565b8015613aa15780601f10613a7657610100808354040283529160200191613aa1565b820191906000526020600020905b815481529060010190602001808311613a8457829003601f168201915b50505050508152602001600682018054613aba90615912565b80601f0160208091040260200160405190810160405280929190818152602001828054613ae690615912565b8015613b335780601f10613b0857610100808354040283529160200191613b33565b820191906000526020600020905b815481529060010190602001808311613b1657829003601f168201915b50505050508152602001600782018054613b4c90615912565b80601f0160208091040260200160405190810160405280929190818152602001828054613b7890615912565b8015613bc55780601f10613b9a57610100808354040283529160200191613bc5565b820191906000526020600020905b815481529060010190602001808311613ba857829003601f168201915b50505050508152602001600882018054613bde90615912565b80601f0160208091040260200160405190810160405280929190818152602001828054613c0a90615912565b8015613c575780601f10613c2c57610100808354040283529160200191613c57565b820191906000526020600020905b815481529060010190602001808311613c3a57829003601f168201915b50505050508152602001600982018054613c7090615912565b80601f0160208091040260200160405190810160405280929190818152602001828054613c9c90615912565b8015613ce95780601f10613cbe57610100808354040283529160200191613ce9565b820191906000526020600020905b815481529060010190602001808311613ccc57829003601f168201915b50505050508152602001600a82018054613d0290615912565b80601f0160208091040260200160405190810160405280929190818152602001828054613d2e90615912565b8015613d7b5780601f10613d5057610100808354040283529160200191613d7b565b820191906000526020600020905b815481529060010190602001808311613d5e57829003601f168201915b50505050508152602001600b82018054613d9490615912565b80601f0160208091040260200160405190810160405280929190818152602001828054613dc090615912565b8015613e0d5780601f10613de257610100808354040283529160200191613e0d565b820191906000526020600020905b815481529060010190602001808311613df057829003601f168201915b50505050508152602001600c82018054613e2690615912565b80601f0160208091040260200160405190810160405280929190818152602001828054613e5290615912565b8015613e9f5780601f10613e7457610100808354040283529160200191613e9f565b820191906000526020600020905b815481529060010190602001808311613e8257829003601f168201915b50505050508152602001600d820160009054906101000a900460ff16151515158152602001600d820160019054906101000a900460ff16151515158152602001600e8201548152602001600f82015481525050815260200190600101906138a2565b50505050905090565b6000613f178585856141fe565b90503373ffffffffffffffffffffffffffffffffffffffff16600260008673ffffffffffffffffffffffffffffffffffffffff1673ffffffffffffffffffffffffffffffffffffffff1681526020019081526020016000208281548110613fa7577f4e487b7100000000000000000000000000000000000000000000000000000000600052603260045260246000fd5b906000526020600020906010020160010160009054906101000a900473ffffffffffffffffffffffffffffffffffffffff1673ffffffffffffffffffffffffffffffffffffffff161461402f576040517f08c379a0000000000000000000000000000000000000000000000000000000008152600401614026906154e0565b60405180910390fd5b81600260008673ffffffffffffffffffffffffffffffffffffffff1673ffffffffffffffffffffffffffffffffffffffff16815260200190815260200160002082815481106140a7577f4e487b7100000000000000000000000000000000000000000000000000000000600052603260045260246000fd5b9060005260206000209060100201600b0190805190602001906140cb9291906146c9565b506040518060400160405280600481526020017f646f6e6500000000000000000000000000000000000000000000000000000000815250600260008673ffffffffffffffffffffffffffffffffffffffff1673ffffffffffffffffffffffffffffffffffffffff1681526020019081526020016000208281548110614179577f4e487b7100000000000000000000000000000000000000000000000000000000600052603260045260246000fd5b9060005260206000209060100201600a01908051906020019061419d9291906146c9565b505050505050565b6000816040516020016141b8919061538b565b60405160208183030381529060405280519060200120836040516020016141df919061538b565b6040516020818303038152906040528051906020012014905092915050565b6000805b600260008573ffffffffffffffffffffffffffffffffffffffff1673ffffffffffffffffffffffffffffffffffffffff1681526020019081526020016000208054905081101561441a57614366600260008673ffffffffffffffffffffffffffffffffffffffff1673ffffffffffffffffffffffffffffffffffffffff16815260200190815260200160002082815481106142c6577f4e487b7100000000000000000000000000000000000000000000000000000000600052603260045260246000fd5b906000526020600020906010020160000180546142e290615912565b80601f016020809104026020016040519081016040528092919081815260200182805461430e90615912565b801561435b5780601f106143305761010080835404028352916020019161435b565b820191906000526020600020905b81548152906001019060200180831161433e57829003601f168201915b5050505050866141a5565b80156143f9575082600260008673ffffffffffffffffffffffffffffffffffffffff1673ffffffffffffffffffffffffffffffffffffffff16815260200190815260200160002082815481106143e5577f4e487b7100000000000000000000000000000000000000000000000000000000600052603260045260246000fd5b9060005260206000209060100201600f0154145b15614407578091505061441c565b808061441290615975565b915050614202565b505b9392505050565b6000806000905060005b83518110156146135760005b866000868481518110614475577f4e487b7100000000000000000000000000000000000000000000000000000000600052603260045260246000fd5b602002602001015173ffffffffffffffffffffffffffffffffffffffff1673ffffffffffffffffffffffffffffffffffffffff168152602001908152602001600020805490508110156145ff578573ffffffffffffffffffffffffffffffffffffffff16876000878581518110614515577f4e487b7100000000000000000000000000000000000000000000000000000000600052603260045260246000fd5b602002602001015173ffffffffffffffffffffffffffffffffffffffff1673ffffffffffffffffffffffffffffffffffffffff168152602001908152602001600020828154811061458f577f4e487b7100000000000000000000000000000000000000000000000000000000600052603260045260246000fd5b906000526020600020906010020160010160009054906101000a900473ffffffffffffffffffffffffffffffffffffffff1673ffffffffffffffffffffffffffffffffffffffff1614156145ec5782806145e890615975565b9350505b80806145f790615975565b915050614439565b50808061460b90615975565b91505061442d565b50809150509392505050565b6000805b82518110156146bd578373ffffffffffffffffffffffffffffffffffffffff1683828151811061467c577f4e487b7100000000000000000000000000000000000000000000000000000000600052603260045260246000fd5b602002602001015173ffffffffffffffffffffffffffffffffffffffff1614156146aa5760019150506146c3565b80806146b590615975565b915050614623565b50600090505b92915050565b8280546146d590615912565b90600052602060002090601f0160209004810192826146f7576000855561473e565b82601f1061471057805160ff191683800117855561473e565b8280016001018555821561473e579182015b8281111561473d578251825591602001919060010190614722565b5b50905061474b9190614803565b5090565b60405180610220016040528060608152602001600073ffffffffffffffffffffffffffffffffffffffff168152602001600073ffffffffffffffffffffffffffffffffffffffff1681526020016000815260200160008152602001606081526020016060815260200160608152602001606081526020016060815260200160608152602001606081526020016060815260200160001515815260200160001515815260200160008152602001600081525090565b5b8082111561481c576000816000905550600101614804565b5090565b600061483361482e84615730565b61570b565b90508281526020810184848401111561484b57600080fd5b6148568482856158d0565b509392505050565b60008135905061486d81615e0b565b92915050565b60008135905061488281615e22565b92915050565b60008135905061489781615e39565b92915050565b600082601f8301126148ae57600080fd5b81356148be848260208601614820565b91505092915050565b6000813590506148d681615e50565b92915050565b6000602082840312156148ee57600080fd5b60006148fc8482850161485e565b91505092915050565b6000806000806080858703121561491b57600080fd5b600085013567ffffffffffffffff81111561493557600080fd5b6149418782880161489d565b945050602061495287828801614873565b9350506040614963878288016148c7565b925050606061497487828801614888565b91505092959194509250565b6000806000806080858703121561499657600080fd5b600085013567ffffffffffffffff8111156149b057600080fd5b6149bc8782880161489d565b94505060206149cd8782880161485e565b93505060406149de878288016148c7565b925050606085013567ffffffffffffffff8111156149fb57600080fd5b614a078782880161489d565b91505092959194509250565b60008060008060008060c08789031215614a2c57600080fd5b600087013567ffffffffffffffff811115614a4657600080fd5b614a5289828a0161489d565b9650506020614a6389828a016148c7565b955050604087013567ffffffffffffffff811115614a8057600080fd5b614a8c89828a0161489d565b9450506060614a9d89828a01614888565b935050608087013567ffffffffffffffff811115614aba57600080fd5b614ac689828a0161489d565b92505060a0614ad789828a01614873565b9150509295509295509295565b600080600080600080600060e0888a031215614aff57600080fd5b600088013567ffffffffffffffff811115614b1957600080fd5b614b258a828b0161489d565b9750506020614b368a828b016148c7565b965050604088013567ffffffffffffffff811115614b5357600080fd5b614b5f8a828b0161489d565b955050606088013567ffffffffffffffff811115614b7c57600080fd5b614b888a828b0161489d565b945050608088013567ffffffffffffffff811115614ba557600080fd5b614bb18a828b0161489d565b93505060a088013567ffffffffffffffff811115614bce57600080fd5b614bda8a828b0161489d565b92505060c088013567ffffffffffffffff811115614bf757600080fd5b614c038a828b0161489d565b91505092959891949750929550565b60008060008060808587031215614c2857600080fd5b600085013567ffffffffffffffff811115614c4257600080fd5b614c4e8782880161489d565b9450506020614c5f878288016148c7565b9350506040614c70878288016148c7565b9250506060614c81878288016148c7565b91505092959194509250565b6000614c998383614cb9565b60208301905092915050565b6000614cb183836151c8565b905092915050565b614cc281615876565b82525050565b6000614cd382615796565b614cdd81856157d1565b9350614ce883615761565b8060005b83811015614d19578151614d008882614c8d565b9750614d0b836157b7565b925050600181019050614cec565b5085935050505092915050565b6000614d31826157a1565b614d3b81856157e2565b935083602082028501614d4d85615771565b8060005b85811015614d895784840389528151614d6a8582614ca5565b9450614d75836157c4565b925060208a01995050600181019050614d51565b50829750879550505050505092915050565b614da48161589a565b82525050565b614db38161589a565b82525050565b6000614dc4826157ac565b614dce81856157f3565b9350614dde8185602086016158df565b614de781615a4b565b840191505092915050565b6000614dfd826157ac565b614e078185615815565b9350614e178185602086016158df565b80840191505092915050565b60008154614e3081615912565b614e3a8186615804565b94506001821660008114614e555760018114614e6757614e9a565b60ff1983168652602086019350614e9a565b614e7085615781565b60005b83811015614e9257815481890152600182019150602081019050614e73565b808801955050505b50505092915050565b6000614eb0600f83615804565b9150614ebb82615a5c565b602082019050919050565b6000614ed3600783615815565b9150614ede82615a85565b600782019050919050565b6000614ef6600e83615804565b9150614f0182615aae565b602082019050919050565b6000614f19600c83615804565b9150614f2482615ad7565b602082019050919050565b6000614f3c600e83615804565b9150614f4782615b00565b602082019050919050565b6000614f5f601083615804565b9150614f6a82615b29565b602082019050919050565b6000614f82600983615804565b9150614f8d82615b52565b602082019050919050565b6000614fa5600883615815565b9150614fb082615b7b565b600882019050919050565b6000614fc8601683615804565b9150614fd382615ba4565b602082019050919050565b6000614feb601c83615804565b9150614ff682615bcd565b602082019050919050565b600061500e601183615804565b915061501982615bf6565b602082019050919050565b6000615031600e83615804565b915061503c82615c1f565b602082019050919050565b6000615054600983615804565b915061505f82615c48565b602082019050919050565b6000615077601b83615804565b915061508282615c71565b602082019050919050565b600061509a601083615804565b91506150a582615c9a565b602082019050919050565b60006150bd600a83615804565b91506150c882615cc3565b602082019050919050565b60006150e0600583615815565b91506150eb82615cec565b600582019050919050565b6000615103600d83615804565b915061510e82615d15565b602082019050919050565b6000615126600d83615804565b915061513182615d3e565b602082019050919050565b6000615149601383615804565b915061515482615d67565b602082019050919050565b600061516c600d83615804565b915061517782615d90565b602082019050919050565b600061518f600383615804565b915061519a82615db9565b602082019050919050565b60006151b2600e83615804565b91506151bd82615de2565b602082019050919050565b60006102208301600083015184820360008601526151e68282614db9565b91505060208301516151fb6020860182614cb9565b50604083015161520e6040860182614cb9565b506060830151615221606086018261536d565b506080830151615234608086018261536d565b5060a083015184820360a086015261524c8282614db9565b91505060c083015184820360c08601526152668282614db9565b91505060e083015184820360e08601526152808282614db9565b91505061010083015184820361010086015261529c8282614db9565b9150506101208301518482036101208601526152b88282614db9565b9150506101408301518482036101408601526152d48282614db9565b9150506101608301518482036101608601526152f08282614db9565b91505061018083015184820361018086015261530c8282614db9565b9150506101a08301516153236101a0860182614d9b565b506101c08301516153386101c0860182614d9b565b506101e083015161534d6101e086018261536d565b5061020083015161536261020086018261536d565b508091505092915050565b615376816158c6565b82525050565b615385816158c6565b82525050565b60006153978284614df2565b915081905092915050565b60006153ad82614ec6565b9150819050919050565b60006153c282614f98565b9150819050919050565b60006153d7826150d3565b9150819050919050565b600060208201905081810360008301526153fb8184614cc8565b905092915050565b6000602082019050818103600083015261541d8184614d26565b905092915050565b600060208201905061543a6000830184614daa565b92915050565b6000602082019050818103600083015261545981614ea3565b9050919050565b6000602082019050818103600083015261547981614ee9565b9050919050565b6000602082019050818103600083015261549981614f0c565b9050919050565b600060208201905081810360008301526154b981614f2f565b9050919050565b600060208201905081810360008301526154d981614f52565b9050919050565b600060208201905081810360008301526154f981614f75565b9050919050565b6000602082019050818103600083015261551981614fbb565b9050919050565b6000602082019050818103600083015261553981614fde565b9050919050565b6000602082019050818103600083015261555981615001565b9050919050565b6000602082019050818103600083015261557981615024565b9050919050565b6000602082019050818103600083015261559981615047565b9050919050565b600060208201905081810360008301526155b98161506a565b9050919050565b600060208201905081810360008301526155d98161508d565b9050919050565b600060208201905081810360008301526155f9816150b0565b9050919050565b60006020820190508181036000830152615619816150f6565b9050919050565b6000602082019050818103600083015261563981615119565b9050919050565b600060208201905081810360008301526156598161513c565b9050919050565b600060208201905081810360008301526156798161515f565b9050919050565b6000602082019050818103600083015261569981615182565b9050919050565b600060208201905081810360008301526156b9816151a5565b9050919050565b60006020820190506156d5600083018461537c565b92915050565b60006040820190506156f0600083018561537c565b81810360208301526157028184614e23565b90509392505050565b6000615715615726565b90506157218282615944565b919050565b6000604051905090565b600067ffffffffffffffff82111561574b5761574a615a1c565b5b61575482615a4b565b9050602081019050919050565b6000819050602082019050919050565b6000819050602082019050919050565b60008190508160005260206000209050919050565b600081519050919050565b600081519050919050565b600081519050919050565b6000602082019050919050565b6000602082019050919050565b600082825260208201905092915050565b600082825260208201905092915050565b600082825260208201905092915050565b600082825260208201905092915050565b600081905092915050565b600061582b826158c6565b9150615836836158c6565b9250827fffffffffffffffffffffffffffffffffffffffffffffffffffffffffffffffff0382111561586b5761586a6159be565b5b828201905092915050565b6000615881826158a6565b9050919050565b6000615893826158a6565b9050919050565b60008115159050919050565b600073ffffffffffffffffffffffffffffffffffffffff82169050919050565b6000819050919050565b82818337600083830152505050565b60005b838110156158fd5780820151818401526020810190506158e2565b8381111561590c576000848401525b50505050565b6000600282049050600182168061592a57607f821691505b6020821081141561593e5761593d6159ed565b5b50919050565b61594d82615a4b565b810181811067ffffffffffffffff8211171561596c5761596b615a1c565b5b80604052505050565b6000615980826158c6565b91507fffffffffffffffffffffffffffffffffffffffffffffffffffffffffffffffff8214156159b3576159b26159be565b5b600182019050919050565b7f4e487b7100000000000000000000000000000000000000000000000000000000600052601160045260246000fd5b7f4e487b7100000000000000000000000000000000000000000000000000000000600052602260045260246000fd5b7f4e487b7100000000000000000000000000000000000000000000000000000000600052604160045260246000fd5b6000601f19601f8301169050919050565b7f6f726465722e6e6f742e65786973740000000000000000000000000000000000600082015250565b7f5072656d69756d00000000000000000000000000000000000000000000000000600082015250565b7f706c616e2e6e6f742e6578697374000000000000000000000000000000000000600082015250565b7f6e6f742e637573746f6d65720000000000000000000000000000000000000000600082015250565b7f6e6f742e617574686f72697a6564000000000000000000000000000000000000600082015250565b7f6e6f2e706c616e732e646566696e656400000000000000000000000000000000600082015250565b7f6e6f742e6f776e65720000000000000000000000000000000000000000000000600082015250565b7f5374616e64617264000000000000000000000000000000000000000000000000600082015250565b7f6a6f622e616c72656164792e7265676973746572656400000000000000000000600082015250565b7f616c72656164792e6465636c696e65642e6f722e616363657074656400000000600082015250565b7f637573746f6d65722e6163636570746564000000000000000000000000000000600082015250565b7f6f726465722e6e6f742e646f6e65000000000000000000000000000000000000600082015250565b7f6e6f742e61646d696e0000000000000000000000000000000000000000000000600082015250565b7f637573746f6d65722e6e6f742e6465636c696e65642e6f726465720000000000600082015250565b7f616464726573732e69732e6f776e657200000000000000000000000000000000600082015250565b7f6261642e616374696f6e00000000000000000000000000000000000000000000600082015250565b7f4261736963000000000000000000000000000000000000000000000000000000600082015250565b7f616c72656164792e61646d696e00000000000000000000000000000000000000600082015250565b7f696e76616c69642e707269636500000000000000000000000000000000000000600082015250565b7f6a6f622e616c72656164792e6f72646572656400000000000000000000000000600082015250565b7f6a6f622e6e6f742e657869737400000000000000000000000000000000000000600082015250565b7f4e434f0000000000000000000000000000000000000000000000000000000000600082015250565b7f6f726465722e617070726f766564000000000000000000000000000000000000600082015250565b615e1481615876565b8114615e1f57600080fd5b50565b615e2b81615888565b8114615e3657600080fd5b50565b615e428161589a565b8114615e4d57600080fd5b50565b615e59816158c6565b8114615e6457600080fd5b5056fea264697066735822122020469abda6e31a81318a17874e990200fde0923eb70bd68db70381e98974434f64736f6c63430008040033",
	"linkReferences": {},
	"deployedLinkReferences": {}
}