{
	"_format": "hh-sol-artifact-1",
	"contractName": "webThreeSales",
	"sourceName": "contracts/webThreeSales.sol",
	"abi": [
		{
			"inputs": [],
			"stateMutability": "payable",
			"type": "constructor"
		},
		{
			"anonymous": false,
			"inputs": [
				{
					"indexed": true,
					"internalType": "address",
					"name": "payee",
					"type": "address"
				},
				{
					"indexed": false,
					"internalType": "uint256",
					"name": "weiAmount",
					"type": "uint256"
				}
			],
			"name": "Deposited",
			"type": "event"
		},
		{
			"anonymous": false,
			"inputs": [
				{
					"indexed": true,
					"internalType": "address",
					"name": "payee",
					"type": "address"
				},
				{
					"indexed": false,
					"internalType": "uint256",
					"name": "weiAmmount",
					"type": "uint256"
				},
				{
					"indexed": false,
					"internalType": "string",
					"name": "jobId",
					"type": "string"
				}
			],
			"name": "Refunded",
			"type": "event"
		},
		{
			"anonymous": false,
			"inputs": [
				{
					"indexed": true,
					"internalType": "address",
					"name": "payee",
					"type": "address"
				},
				{
					"indexed": false,
					"internalType": "uint256",
					"name": "weiAmount",
					"type": "uint256"
				}
			],
			"name": "Withdrawn",
			"type": "event"
		},
		{
			"inputs": [
				{
					"internalType": "address",
					"name": "user",
					"type": "address"
				}
			],
			"name": "addAdmin",
			"outputs": [],
			"stateMutability": "nonpayable",
			"type": "function"
		},
		{
			"inputs": [
				{
					"internalType": "string",
					"name": "job_id",
					"type": "string"
				},
				{
					"internalType": "uint256",
					"name": "ordered_at",
					"type": "uint256"
				},
				{
					"internalType": "string",
					"name": "action",
					"type": "string"
				},
				{
					"internalType": "bool",
					"name": "fromCustomer",
					"type": "bool"
				},
				{
					"internalType": "string",
					"name": "decline_reason",
					"type": "string"
				},
				{
					"internalType": "address payable",
					"name": "customer",
					"type": "address"
				}
			],
			"name": "approveOrDeclineWork",
			"outputs": [],
			"stateMutability": "nonpayable",
			"type": "function"
		},
		{
			"inputs": [
				{
					"internalType": "string",
					"name": "job_id",
					"type": "string"
				},
				{
					"internalType": "uint256",
					"name": "basic_price",
					"type": "uint256"
				},
				{
					"internalType": "uint256",
					"name": "premium_price",
					"type": "uint256"
				},
				{
					"internalType": "uint256",
					"name": "standard_price",
					"type": "uint256"
				}
			],
			"name": "createJob",
			"outputs": [],
			"stateMutability": "nonpayable",
			"type": "function"
		},
		{
			"inputs": [
				{
					"internalType": "string",
					"name": "job_id",
					"type": "string"
				},
				{
					"internalType": "address",
					"name": "customer",
					"type": "address"
				},
				{
					"internalType": "uint256",
					"name": "ordered_at",
					"type": "uint256"
				},
				{
					"internalType": "string",
					"name": "ipfs_hash",
					"type": "string"
				}
			],
			"name": "finishJob",
			"outputs": [],
			"stateMutability": "nonpayable",
			"type": "function"
		},
		{
			"inputs": [],
			"name": "getAddresses",
			"outputs": [
				{
					"internalType": "address[]",
					"name": "",
					"type": "address[]"
				}
			],
			"stateMutability": "view",
			"type": "function"
		},
		{
			"inputs": [],
			"name": "getOrdered",
			"outputs": [
				{
					"components": [
						{
							"internalType": "string",
							"name": "api_id",
							"type": "string"
						},
						{
							"internalType": "address",
							"name": "worker_address",
							"type": "address"
						},
						{
							"internalType": "address",
							"name": "ordered_by",
							"type": "address"
						},
						{
							"internalType": "uint256",
							"name": "price",
							"type": "uint256"
						},
						{
							"internalType": "uint256",
							"name": "delivery_day",
							"type": "uint256"
						},
						{
							"internalType": "string",
							"name": "order_title",
							"type": "string"
						},
						{
							"internalType": "string",
							"name": "order_desc",
							"type": "string"
						},
						{
							"internalType": "string",
							"name": "plan_title",
							"type": "string"
						},
						{
							"internalType": "string",
							"name": "plan_desc",
							"type": "string"
						},
						{
							"internalType": "string",
							"name": "user_info",
							"type": "string"
						},
						{
							"internalType": "string",
							"name": "status",
							"type": "string"
						},
						{
							"internalType": "string",
							"name": "ipfs_hash",
							"type": "string"
						},
						{
							"internalType": "string",
							"name": "decline_reason",
							"type": "string"
						},
						{
							"internalType": "bool",
							"name": "customer_accepted",
							"type": "bool"
						},
						{
							"internalType": "bool",
							"name": "accepted",
							"type": "bool"
						},
						{
							"internalType": "uint256",
							"name": "accepted_at",
							"type": "uint256"
						},
						{
							"internalType": "uint256",
							"name": "ordered_at",
							"type": "uint256"
						}
					],
					"internalType": "struct Order[]",
					"name": "",
					"type": "tuple[]"
				}
			],
			"stateMutability": "view",
			"type": "function"
		},
		{
			"inputs": [],
			"name": "getOrders",
			"outputs": [
				{
					"components": [
						{
							"internalType": "string",
							"name": "api_id",
							"type": "string"
						},
						{
							"internalType": "address",
							"name": "worker_address",
							"type": "address"
						},
						{
							"internalType": "address",
							"name": "ordered_by",
							"type": "address"
						},
						{
							"internalType": "uint256",
							"name": "price",
							"type": "uint256"
						},
						{
							"internalType": "uint256",
							"name": "delivery_day",
							"type": "uint256"
						},
						{
							"internalType": "string",
							"name": "order_title",
							"type": "string"
						},
						{
							"internalType": "string",
							"name": "order_desc",
							"type": "string"
						},
						{
							"internalType": "string",
							"name": "plan_title",
							"type": "string"
						},
						{
							"internalType": "string",
							"name": "plan_desc",
							"type": "string"
						},
						{
							"internalType": "string",
							"name": "user_info",
							"type": "string"
						},
						{
							"internalType": "string",
							"name": "status",
							"type": "string"
						},
						{
							"internalType": "string",
							"name": "ipfs_hash",
							"type": "string"
						},
						{
							"internalType": "string",
							"name": "decline_reason",
							"type": "string"
						},
						{
							"internalType": "bool",
							"name": "customer_accepted",
							"type": "bool"
						},
						{
							"internalType": "bool",
							"name": "accepted",
							"type": "bool"
						},
						{
							"internalType": "uint256",
							"name": "accepted_at",
							"type": "uint256"
						},
						{
							"internalType": "uint256",
							"name": "ordered_at",
							"type": "uint256"
						}
					],
					"internalType": "struct Order[]",
					"name": "",
					"type": "tuple[]"
				}
			],
			"stateMutability": "view",
			"type": "function"
		},
		{
			"inputs": [],
			"name": "isAdmin",
			"outputs": [
				{
					"internalType": "bool",
					"name": "",
					"type": "bool"
				}
			],
			"stateMutability": "view",
			"type": "function"
		},
		{
			"inputs": [
				{
					"internalType": "string",
					"name": "api_id",
					"type": "string"
				},
				{
					"internalType": "uint256",
					"name": "delivery_day",
					"type": "uint256"
				},
				{
					"internalType": "string",
					"name": "order_title",
					"type": "string"
				},
				{
					"internalType": "string",
					"name": "order_desc",
					"type": "string"
				},
				{
					"internalType": "string",
					"name": "plan_title",
					"type": "string"
				},
				{
					"internalType": "string",
					"name": "plan_desc",
					"type": "string"
				},
				{
					"internalType": "string",
					"name": "user_info",
					"type": "string"
				}
			],
			"name": "postOrder",
			"outputs": [],
			"stateMutability": "payable",
			"type": "function"
		},
		{
			"inputs": [
				{
					"internalType": "string",
					"name": "job_id",
					"type": "string"
				},
				{
					"internalType": "address payable",
					"name": "customer",
					"type": "address"
				},
				{
					"internalType": "uint256",
					"name": "ordered_at",
					"type": "uint256"
				},
				{
					"internalType": "bool",
					"name": "refundCustomer",
					"type": "bool"
				}
			],
			"name": "refundPart",
			"outputs": [],
			"stateMutability": "nonpayable",
			"type": "function"
		},
		{
			"inputs": [
				{
					"internalType": "address",
					"name": "user",
					"type": "address"
				}
			],
			"name": "removeAdmin",
			"outputs": [],
			"stateMutability": "nonpayable",
			"type": "function"
		}
	],
	"bytecode": "0x6080604052336000806101000a81548173ffffffffffffffffffffffffffffffffffffffff021916908373ffffffffffffffffffffffffffffffffffffffff16021790555060018060003373ffffffffffffffffffffffffffffffffffffffff1673ffffffffffffffffffffffffffffffffffffffff16815260200190815260200160002060006101000a81548160ff021916908315150217905550615f3a806100aa6000396000f3fe60806040526004361061009c5760003560e01c806370480275116100645780637048027514610163578063a39fac121461018c578063b5eb16d2146101b7578063b6db75a0146101e0578063dd66cb261461020b578063e864f08d146102365761009c565b806304998c5c146100a157806306e5f6b2146100ca5780631785f53c146100f35780632e2dc43e1461011c5780636b00038a14610147575b600080fd5b3480156100ad57600080fd5b506100c860048036038101906100c39190614caf565b61025f565b005b3480156100d657600080fd5b506100f160048036038101906100ec91906149a2565b61047f565b005b3480156100ff57600080fd5b5061011a60048036038101906101159190614979565b610d8a565b005b34801561012857600080fd5b50610131610f95565b60405161013e91906154a0565b60405180910390f35b610161600480360381019061015c9190614b81565b611931565b005b34801561016f57600080fd5b5061018a60048036038101906101859190614979565b612490565b005b34801561019857600080fd5b506101a161260b565b6040516101ae919061547e565b60405180910390f35b3480156101c357600080fd5b506101de60048036038101906101d99190614ab0565b612699565b005b3480156101ec57600080fd5b506101f561388a565b60405161020291906154c2565b60405180910390f35b34801561021757600080fd5b506102206138de565b60405161022d91906154a0565b60405180910390f35b34801561024257600080fd5b5061025d60048036038101906102589190614a1d565b613fa7565b005b600073ffffffffffffffffffffffffffffffffffffffff166003856040516102879190615428565b908152602001604051809103902060009054906101000a900473ffffffffffffffffffffffffffffffffffffffff1673ffffffffffffffffffffffffffffffffffffffff161461030c576040517f08c379a00000000000000000000000000000000000000000000000000000000081526004016103039061559d565b60405180910390fd5b600083118061031b5750600082115b806103265750600081115b610365576040517f08c379a000000000000000000000000000000000000000000000000000000000815260040161035c9061555d565b60405180910390fd5b336003856040516103769190615428565b908152602001604051809103902060006101000a81548173ffffffffffffffffffffffffffffffffffffffff021916908373ffffffffffffffffffffffffffffffffffffffff160217905550826004856040516103d39190615428565b90815260200160405180910390206040516103ed90615469565b908152602001604051809103902081905550816004856040516104109190615428565b908152602001604051809103902060405161042a9061543f565b9081526020016040518091039020819055508060048560405161044d9190615428565b908152602001604051809103902060405161046790615454565b90815260200160405180910390208190555050505050565b83836000805b600260008473ffffffffffffffffffffffffffffffffffffffff1673ffffffffffffffffffffffffffffffffffffffff1681526020019081526020016000208054905081101561060a576105e9600260008573ffffffffffffffffffffffffffffffffffffffff1673ffffffffffffffffffffffffffffffffffffffff1681526020019081526020016000208281548110610549577f4e487b7100000000000000000000000000000000000000000000000000000000600052603260045260246000fd5b90600052602060002090601002016000018054610565906159af565b80601f0160208091040260200160405190810160405280929190818152602001828054610591906159af565b80156105de5780601f106105b3576101008083540402835291602001916105de565b820191906000526020600020905b8154815290600101906020018083116105c157829003601f168201915b505050505085614242565b156105f7576001915061060a565b808061060290615a12565b915050610485565b506001151581151514610652576040517f08c379a0000000000000000000000000000000000000000000000000000000008152600401610649906154dd565b60405180910390fd5b600061065f88888861429b565b905061066961388a565b6106a8576040517f08c379a000000000000000000000000000000000000000000000000000000000815260040161069f9061553d565b60405180910390fd5b60001515600260008973ffffffffffffffffffffffffffffffffffffffff1673ffffffffffffffffffffffffffffffffffffffff1681526020019081526020016000208281548110610723577f4e487b7100000000000000000000000000000000000000000000000000000000600052603260045260246000fd5b9060005260206000209060100201600d0160009054906101000a900460ff16151514610784576040517f08c379a000000000000000000000000000000000000000000000000000000000815260040161077b906155dd565b60405180910390fd5b6108d3600260003373ffffffffffffffffffffffffffffffffffffffff1673ffffffffffffffffffffffffffffffffffffffff16815260200190815260200160002082815481106107fe577f4e487b7100000000000000000000000000000000000000000000000000000000600052603260045260246000fd5b9060005260206000209060100201600a01805461081a906159af565b80601f0160208091040260200160405190810160405280929190818152602001828054610846906159af565b80156108935780601f1061086857610100808354040283529160200191610893565b820191906000526020600020905b81548152906001019060200180831161087657829003601f168201915b50505050506040518060400160405280601181526020017f637573746f6d65725f6465636c696e6564000000000000000000000000000000815250614242565b610912576040517f08c379a00000000000000000000000000000000000000000000000000000000081526004016109099061563d565b60405180910390fd5b6000600260008973ffffffffffffffffffffffffffffffffffffffff1673ffffffffffffffffffffffffffffffffffffffff168152602001908152602001600020828154811061098b577f4e487b7100000000000000000000000000000000000000000000000000000000600052603260045260246000fd5b90600052602060002090601002016003015490508515610ac8578773ffffffffffffffffffffffffffffffffffffffff166108fc829081150290604051600060405180830381858888f193505050501580156109eb573d6000803e3d6000fd5b508773ffffffffffffffffffffffffffffffffffffffff167fca15137148c4fd79778d6f6a3d6833d6bbc140f167d9eb76644af5763d93c22182600260008c73ffffffffffffffffffffffffffffffffffffffff1673ffffffffffffffffffffffffffffffffffffffff1681526020019081526020016000208581548110610a9c577f4e487b7100000000000000000000000000000000000000000000000000000000600052603260045260246000fd5b9060005260206000209060100201600001604051610abb929190615778565b60405180910390a2610c0c565b6000600260008a73ffffffffffffffffffffffffffffffffffffffff1673ffffffffffffffffffffffffffffffffffffffff1681526020019081526020016000208381548110610b41577f4e487b7100000000000000000000000000000000000000000000000000000000600052603260045260246000fd5b906000526020600020906010020160010160009054906101000a900473ffffffffffffffffffffffffffffffffffffffff1690508073ffffffffffffffffffffffffffffffffffffffff166108fc839081150290604051600060405180830381858888f19350505050158015610bbb573d6000803e3d6000fd5b508073ffffffffffffffffffffffffffffffffffffffff167f7084f5476618d8e60b11ef0d7d3f06914655adb8793e28ff7f018d4c76d505d583604051610c02919061575d565b60405180910390a2505b6040518060400160405280600481526020017f646f6e6500000000000000000000000000000000000000000000000000000000815250600260008a73ffffffffffffffffffffffffffffffffffffffff1673ffffffffffffffffffffffffffffffffffffffff1681526020019081526020016000208381548110610cb9577f4e487b7100000000000000000000000000000000000000000000000000000000600052603260045260246000fd5b9060005260206000209060100201600a019080519060200190610cdd929190614766565b506001600260008a73ffffffffffffffffffffffffffffffffffffffff1673ffffffffffffffffffffffffffffffffffffffff1681526020019081526020016000208381548110610d57577f4e487b7100000000000000000000000000000000000000000000000000000000600052603260045260246000fd5b9060005260206000209060100201600d0160006101000a81548160ff021916908315150217905550505050505050505050565b60008054906101000a900473ffffffffffffffffffffffffffffffffffffffff1673ffffffffffffffffffffffffffffffffffffffff168173ffffffffffffffffffffffffffffffffffffffff161415610e19576040517f08c379a0000000000000000000000000000000000000000000000000000000008152600401610e109061565d565b60405180910390fd5b60008054906101000a900473ffffffffffffffffffffffffffffffffffffffff1673ffffffffffffffffffffffffffffffffffffffff163373ffffffffffffffffffffffffffffffffffffffff1614610ea7576040517f08c379a0000000000000000000000000000000000000000000000000000000008152600401610e9e9061571d565b60405180910390fd5b60011515600160008373ffffffffffffffffffffffffffffffffffffffff1673ffffffffffffffffffffffffffffffffffffffff16815260200190815260200160002060009054906101000a900460ff16151514610f3a576040517f08c379a0000000000000000000000000000000000000000000000000000000008152600401610f319061561d565b60405180910390fd5b6000600160008373ffffffffffffffffffffffffffffffffffffffff1673ffffffffffffffffffffffffffffffffffffffff16815260200190815260200160002060006101000a81548160ff02191690831515021790555050565b6060600061102b600233600680548060200260200160405190810160405280929190818152602001828054801561102157602002820191906000526020600020905b8160009054906101000a900473ffffffffffffffffffffffffffffffffffffffff1673ffffffffffffffffffffffffffffffffffffffff1681526020019060010190808311610fd7575b50505050506144c0565b905060008167ffffffffffffffff81111561106f577f4e487b7100000000000000000000000000000000000000000000000000000000600052604160045260246000fd5b6040519080825280602002602001820160405280156110a857816020015b6110956147ec565b81526020019060019003908161108d5790505b5090506000805b60068054905081101561192757600060026000600684815481106110fc577f4e487b7100000000000000000000000000000000000000000000000000000000600052603260045260246000fd5b9060005260206000200160009054906101000a900473ffffffffffffffffffffffffffffffffffffffff1673ffffffffffffffffffffffffffffffffffffffff1673ffffffffffffffffffffffffffffffffffffffff168152602001908152602001600020805480602002602001604051908101604052809291908181526020016000905b828210156117e05783829060005260206000209060100201604051806102200160405290816000820180546111b5906159af565b80601f01602080910402602001604051908101604052809291908181526020018280546111e1906159af565b801561122e5780601f106112035761010080835404028352916020019161122e565b820191906000526020600020905b81548152906001019060200180831161121157829003601f168201915b505050505081526020016001820160009054906101000a900473ffffffffffffffffffffffffffffffffffffffff1673ffffffffffffffffffffffffffffffffffffffff1673ffffffffffffffffffffffffffffffffffffffff1681526020016002820160009054906101000a900473ffffffffffffffffffffffffffffffffffffffff1673ffffffffffffffffffffffffffffffffffffffff1673ffffffffffffffffffffffffffffffffffffffff1681526020016003820154815260200160048201548152602001600582018054611307906159af565b80601f0160208091040260200160405190810160405280929190818152602001828054611333906159af565b80156113805780601f1061135557610100808354040283529160200191611380565b820191906000526020600020905b81548152906001019060200180831161136357829003601f168201915b50505050508152602001600682018054611399906159af565b80601f01602080910402602001604051908101604052809291908181526020018280546113c5906159af565b80156114125780601f106113e757610100808354040283529160200191611412565b820191906000526020600020905b8154815290600101906020018083116113f557829003601f168201915b5050505050815260200160078201805461142b906159af565b80601f0160208091040260200160405190810160405280929190818152602001828054611457906159af565b80156114a45780601f10611479576101008083540402835291602001916114a4565b820191906000526020600020905b81548152906001019060200180831161148757829003601f168201915b505050505081526020016008820180546114bd906159af565b80601f01602080910402602001604051908101604052809291908181526020018280546114e9906159af565b80156115365780601f1061150b57610100808354040283529160200191611536565b820191906000526020600020905b81548152906001019060200180831161151957829003601f168201915b5050505050815260200160098201805461154f906159af565b80601f016020809104026020016040519081016040528092919081815260200182805461157b906159af565b80156115c85780601f1061159d576101008083540402835291602001916115c8565b820191906000526020600020905b8154815290600101906020018083116115ab57829003601f168201915b50505050508152602001600a820180546115e1906159af565b80601f016020809104026020016040519081016040528092919081815260200182805461160d906159af565b801561165a5780601f1061162f5761010080835404028352916020019161165a565b820191906000526020600020905b81548152906001019060200180831161163d57829003601f168201915b50505050508152602001600b82018054611673906159af565b80601f016020809104026020016040519081016040528092919081815260200182805461169f906159af565b80156116ec5780601f106116c1576101008083540402835291602001916116ec565b820191906000526020600020905b8154815290600101906020018083116116cf57829003601f168201915b50505050508152602001600c82018054611705906159af565b80601f0160208091040260200160405190810160405280929190818152602001828054611731906159af565b801561177e5780601f106117535761010080835404028352916020019161177e565b820191906000526020600020905b81548152906001019060200180831161176157829003601f168201915b50505050508152602001600d820160009054906101000a900460ff16151515158152602001600d820160019054906101000a900460ff16151515158152602001600e8201548152602001600f8201548152505081526020019060010190611181565b50505050905060005b8151811015611912573373ffffffffffffffffffffffffffffffffffffffff16828281518110611842577f4e487b7100000000000000000000000000000000000000000000000000000000600052603260045260246000fd5b60200260200101516020015173ffffffffffffffffffffffffffffffffffffffff1614156118ff578181815181106118a3577f4e487b7100000000000000000000000000000000000000000000000000000000600052603260045260246000fd5b60200260200101518585815181106118e4577f4e487b7100000000000000000000000000000000000000000000000000000000600052603260045260246000fd5b60200260200101819052506001846118fc91906158bd565b93505b808061190a90615a12565b9150506117e9565b5050808061191f90615a12565b9150506110af565b5081935050505090565b866000805b600260003373ffffffffffffffffffffffffffffffffffffffff1673ffffffffffffffffffffffffffffffffffffffff16815260200190815260200160002080549050811015611d6957611a9a600260003373ffffffffffffffffffffffffffffffffffffffff1673ffffffffffffffffffffffffffffffffffffffff16815260200190815260200160002082815481106119fa577f4e487b7100000000000000000000000000000000000000000000000000000000600052603260045260246000fd5b90600052602060002090601002016000018054611a16906159af565b80601f0160208091040260200160405190810160405280929190818152602001828054611a42906159af565b8015611a8f5780601f10611a6457610100808354040283529160200191611a8f565b820191906000526020600020905b815481529060010190602001808311611a7257829003601f168201915b505050505084614242565b15611d5657611bee600260003373ffffffffffffffffffffffffffffffffffffffff1673ffffffffffffffffffffffffffffffffffffffff1681526020019081526020016000208281548110611b19577f4e487b7100000000000000000000000000000000000000000000000000000000600052603260045260246000fd5b9060005260206000209060100201600a018054611b35906159af565b80601f0160208091040260200160405190810160405280929190818152602001828054611b61906159af565b8015611bae5780601f10611b8357610100808354040283529160200191611bae565b820191906000526020600020905b815481529060010190602001808311611b9157829003601f168201915b50505050506040518060400160405280600481526020017f646f6e6500000000000000000000000000000000000000000000000000000000815250614242565b158015611d475750611d45600260003373ffffffffffffffffffffffffffffffffffffffff1673ffffffffffffffffffffffffffffffffffffffff1681526020019081526020016000208281548110611c70577f4e487b7100000000000000000000000000000000000000000000000000000000600052603260045260246000fd5b9060005260206000209060100201600a018054611c8c906159af565b80601f0160208091040260200160405190810160405280929190818152602001828054611cb8906159af565b8015611d055780601f10611cda57610100808354040283529160200191611d05565b820191906000526020600020905b815481529060010190602001808311611ce857829003601f168201915b50505050506040518060400160405280600881526020017f6465636c696e6564000000000000000000000000000000000000000000000000815250614242565b155b15611d555760019150611d69565b5b8080611d6190615a12565b915050611936565b506000151581151514611db1576040517f08c379a0000000000000000000000000000000000000000000000000000000008152600401611da8906156dd565b60405180910390fd5b600073ffffffffffffffffffffffffffffffffffffffff1660038a604051611dd99190615428565b908152602001604051809103902060009054906101000a900473ffffffffffffffffffffffffffffffffffffffff1673ffffffffffffffffffffffffffffffffffffffff161415611e5f576040517f08c379a0000000000000000000000000000000000000000000000000000000008152600401611e56906156fd565b60405180910390fd5b600060048a604051611e719190615428565b908152602001604051809103902086604051611e8d9190615428565b9081526020016040518091039020541415611edd576040517f08c379a0000000000000000000000000000000000000000000000000000000008152600401611ed4906154fd565b60405180910390fd5b600489604051611eed9190615428565b908152602001604051809103902085604051611f099190615428565b9081526020016040518091039020543414611f59576040517f08c379a0000000000000000000000000000000000000000000000000000000008152600401611f50906156bd565b60405180910390fd5b60006040518061022001604052808b815260200160038c604051611f7d9190615428565b908152602001604051809103902060009054906101000a900473ffffffffffffffffffffffffffffffffffffffff1673ffffffffffffffffffffffffffffffffffffffff1681526020013373ffffffffffffffffffffffffffffffffffffffff16815260200160048c604051611ff39190615428565b90815260200160405180910390208860405161200f9190615428565b90815260200160405180910390205481526020018a81526020018981526020018881526020018781526020018681526020018581526020016040518060400160405280600381526020017f5746410000000000000000000000000000000000000000000000000000000000815250815260200160405180602001604052806000815250815260200160405180602001604052806000815250815260200160001515815260200160001515815260200160008152602001428152509050600260003373ffffffffffffffffffffffffffffffffffffffff1673ffffffffffffffffffffffffffffffffffffffff1681526020019081526020016000208190806001815401808255809150506001900390600052602060002090601002016000909190919091506000820151816000019080519060200190612150929190614766565b5060208201518160010160006101000a81548173ffffffffffffffffffffffffffffffffffffffff021916908373ffffffffffffffffffffffffffffffffffffffff16021790555060408201518160020160006101000a81548173ffffffffffffffffffffffffffffffffffffffff021916908373ffffffffffffffffffffffffffffffffffffffff160217905550606082015181600301556080820151816004015560a082015181600501908051906020019061220f929190614766565b5060c082015181600601908051906020019061222c929190614766565b5060e0820151816007019080519060200190612249929190614766565b50610100820151816008019080519060200190612267929190614766565b50610120820151816009019080519060200190612285929190614766565b5061014082015181600a0190805190602001906122a3929190614766565b5061016082015181600b0190805190602001906122c1929190614766565b5061018082015181600c0190805190602001906122df929190614766565b506101a082015181600d0160006101000a81548160ff0219169083151502179055506101c082015181600d0160016101000a81548160ff0219169083151502179055506101e082015181600e015561020082015181600f015550506123ca3360068054806020026020016040519081016040528092919081815260200182805480156123c057602002820191906000526020600020905b8160009054906101000a900473ffffffffffffffffffffffffffffffffffffffff1673ffffffffffffffffffffffffffffffffffffffff1681526020019060010190808311612376575b50505050506146bc565b612432576006339080600181540180825580915050600190039060005260206000200160009091909190916101000a81548173ffffffffffffffffffffffffffffffffffffffff021916908373ffffffffffffffffffffffffffffffffffffffff1602179055505b3373ffffffffffffffffffffffffffffffffffffffff167f2da466a7b24304f47e87fa2e1e5a81b9831ce54fec19055ce277ca2f39ba42c4826060015160405161247c919061575d565b60405180910390a250505050505050505050565b60008054906101000a900473ffffffffffffffffffffffffffffffffffffffff1673ffffffffffffffffffffffffffffffffffffffff163373ffffffffffffffffffffffffffffffffffffffff161461251e576040517f08c379a00000000000000000000000000000000000000000000000000000000081526004016125159061571d565b60405180910390fd5b60001515600160008373ffffffffffffffffffffffffffffffffffffffff1673ffffffffffffffffffffffffffffffffffffffff16815260200190815260200160002060009054906101000a900460ff161515146125b1576040517f08c379a00000000000000000000000000000000000000000000000000000000081526004016125a89061569d565b60405180910390fd5b60018060008373ffffffffffffffffffffffffffffffffffffffff1673ffffffffffffffffffffffffffffffffffffffff16815260200190815260200160002060006101000a81548160ff02191690831515021790555050565b6060600680548060200260200160405190810160405280929190818152602001828054801561268f57602002820191906000526020600020905b8160009054906101000a900473ffffffffffffffffffffffffffffffffffffffff1673ffffffffffffffffffffffffffffffffffffffff1681526020019060010190808311612645575b5050505050905090565b85816000805b600260008473ffffffffffffffffffffffffffffffffffffffff1673ffffffffffffffffffffffffffffffffffffffff1681526020019081526020016000208054905081101561282457612803600260008573ffffffffffffffffffffffffffffffffffffffff1673ffffffffffffffffffffffffffffffffffffffff1681526020019081526020016000208281548110612763577f4e487b7100000000000000000000000000000000000000000000000000000000600052603260045260246000fd5b9060005260206000209060100201600001805461277f906159af565b80601f01602080910402602001604051908101604052809291908181526020018280546127ab906159af565b80156127f85780601f106127cd576101008083540402835291602001916127f8565b820191906000526020600020905b8154815290600101906020018083116127db57829003601f168201915b505050505085614242565b156128115760019150612824565b808061281c90615a12565b91505061269f565b50600115158115151461286c576040517f08c379a0000000000000000000000000000000000000000000000000000000008152600401612863906154dd565b60405180910390fd5b60006128798a338b61429b565b905060006128bc896040518060400160405280600681526020017f6163636570740000000000000000000000000000000000000000000000000000815250614242565b905060006128ff8a6040518060400160405280600781526020017f6465636c696e6500000000000000000000000000000000000000000000000000815250614242565b9050818061290a5750805b612949576040517f08c379a00000000000000000000000000000000000000000000000000000000081526004016129409061567d565b60405180910390fd5b88156130c1573373ffffffffffffffffffffffffffffffffffffffff16600260003373ffffffffffffffffffffffffffffffffffffffff1673ffffffffffffffffffffffffffffffffffffffff16815260200190815260200160002084815481106129dd577f4e487b7100000000000000000000000000000000000000000000000000000000600052603260045260246000fd5b906000526020600020906010020160020160009054906101000a900473ffffffffffffffffffffffffffffffffffffffff1673ffffffffffffffffffffffffffffffffffffffff1614612a65576040517f08c379a0000000000000000000000000000000000000000000000000000000008152600401612a5c9061551d565b60405180910390fd5b612bb4600260003373ffffffffffffffffffffffffffffffffffffffff1673ffffffffffffffffffffffffffffffffffffffff1681526020019081526020016000208481548110612adf577f4e487b7100000000000000000000000000000000000000000000000000000000600052603260045260246000fd5b9060005260206000209060100201600a018054612afb906159af565b80601f0160208091040260200160405190810160405280929190818152602001828054612b27906159af565b8015612b745780601f10612b4957610100808354040283529160200191612b74565b820191906000526020600020905b815481529060010190602001808311612b5757829003601f168201915b50505050506040518060400160405280600481526020017f646f6e6500000000000000000000000000000000000000000000000000000000815250614242565b612bf3576040517f08c379a0000000000000000000000000000000000000000000000000000000008152600401612bea906155fd565b60405180910390fd5b60001515600260003373ffffffffffffffffffffffffffffffffffffffff1673ffffffffffffffffffffffffffffffffffffffff1681526020019081526020016000208481548110612c6e577f4e487b7100000000000000000000000000000000000000000000000000000000600052603260045260246000fd5b9060005260206000209060100201600d0160009054906101000a900460ff16151514612ccf576040517f08c379a0000000000000000000000000000000000000000000000000000000008152600401612cc69061573d565b60405180910390fd5b8115612f4c576001600260003373ffffffffffffffffffffffffffffffffffffffff1673ffffffffffffffffffffffffffffffffffffffff1681526020019081526020016000208481548110612d4e577f4e487b7100000000000000000000000000000000000000000000000000000000600052603260045260246000fd5b9060005260206000209060100201600d0160006101000a81548160ff0219169083151502179055506000600260003373ffffffffffffffffffffffffffffffffffffffff1673ffffffffffffffffffffffffffffffffffffffff1681526020019081526020016000208481548110612def577f4e487b7100000000000000000000000000000000000000000000000000000000600052603260045260246000fd5b90600052602060002090601002016003015490506000600260003373ffffffffffffffffffffffffffffffffffffffff1673ffffffffffffffffffffffffffffffffffffffff1681526020019081526020016000208581548110612e7c577f4e487b7100000000000000000000000000000000000000000000000000000000600052603260045260246000fd5b906000526020600020906010020160010160009054906101000a900473ffffffffffffffffffffffffffffffffffffffff1690508073ffffffffffffffffffffffffffffffffffffffff166108fc839081150290604051600060405180830381858888f19350505050158015612ef6573d6000803e3d6000fd5b508073ffffffffffffffffffffffffffffffffffffffff167f7084f5476618d8e60b11ef0d7d3f06914655adb8793e28ff7f018d4c76d505d583604051612f3d919061575d565b60405180910390a250506130bc565b87600260003373ffffffffffffffffffffffffffffffffffffffff1673ffffffffffffffffffffffffffffffffffffffff1681526020019081526020016000208481548110612fc4577f4e487b7100000000000000000000000000000000000000000000000000000000600052603260045260246000fd5b9060005260206000209060100201600c019080519060200190612fe8929190614766565b506040518060400160405280601181526020017f637573746f6d65722e6465636c696e6564000000000000000000000000000000815250600260003373ffffffffffffffffffffffffffffffffffffffff1673ffffffffffffffffffffffffffffffffffffffff1681526020019081526020016000208481548110613096577f4e487b7100000000000000000000000000000000000000000000000000000000600052603260045260246000fd5b9060005260206000209060100201600a0190805190602001906130ba929190614766565b505b61387c565b613210600260008973ffffffffffffffffffffffffffffffffffffffff1673ffffffffffffffffffffffffffffffffffffffff168152602001908152602001600020848154811061313b577f4e487b7100000000000000000000000000000000000000000000000000000000600052603260045260246000fd5b9060005260206000209060100201600a018054613157906159af565b80601f0160208091040260200160405190810160405280929190818152602001828054613183906159af565b80156131d05780601f106131a5576101008083540402835291602001916131d0565b820191906000526020600020905b8154815290600101906020018083116131b357829003601f168201915b50505050506040518060400160405280600881526020017f6465636c696e6564000000000000000000000000000000000000000000000000815250614242565b1580156133695750613367600260008973ffffffffffffffffffffffffffffffffffffffff1673ffffffffffffffffffffffffffffffffffffffff1681526020019081526020016000208481548110613292577f4e487b7100000000000000000000000000000000000000000000000000000000600052603260045260246000fd5b9060005260206000209060100201600a0180546132ae906159af565b80601f01602080910402602001604051908101604052809291908181526020018280546132da906159af565b80156133275780601f106132fc57610100808354040283529160200191613327565b820191906000526020600020905b81548152906001019060200180831161330a57829003601f168201915b50505050506040518060400160405280600b81526020017f696e2e70726f6772657373000000000000000000000000000000000000000000815250614242565b155b6133a8576040517f08c379a000000000000000000000000000000000000000000000000000000000815260040161339f906155bd565b60405180910390fd5b3373ffffffffffffffffffffffffffffffffffffffff16600260008973ffffffffffffffffffffffffffffffffffffffff1673ffffffffffffffffffffffffffffffffffffffff1681526020019081526020016000208481548110613436577f4e487b7100000000000000000000000000000000000000000000000000000000600052603260045260246000fd5b906000526020600020906010020160010160009054906101000a900473ffffffffffffffffffffffffffffffffffffffff1673ffffffffffffffffffffffffffffffffffffffff16146134be576040517f08c379a00000000000000000000000000000000000000000000000000000000081526004016134b59061557d565b60405180910390fd5b811561363c576040518060400160405280600b81526020017f696e2e70726f6772657373000000000000000000000000000000000000000000815250600260008973ffffffffffffffffffffffffffffffffffffffff1673ffffffffffffffffffffffffffffffffffffffff1681526020019081526020016000208481548110613571577f4e487b7100000000000000000000000000000000000000000000000000000000600052603260045260246000fd5b9060005260206000209060100201600a019080519060200190613595929190614766565b506001600260008973ffffffffffffffffffffffffffffffffffffffff1673ffffffffffffffffffffffffffffffffffffffff168152602001908152602001600020848154811061360f577f4e487b7100000000000000000000000000000000000000000000000000000000600052603260045260246000fd5b9060005260206000209060100201600d0160016101000a81548160ff02191690831515021790555061387b565b8673ffffffffffffffffffffffffffffffffffffffff166108fc600260008a73ffffffffffffffffffffffffffffffffffffffff1673ffffffffffffffffffffffffffffffffffffffff16815260200190815260200160002085815481106136cd577f4e487b7100000000000000000000000000000000000000000000000000000000600052603260045260246000fd5b9060005260206000209060100201600301549081150290604051600060405180830381858888f1935050505015801561370a573d6000803e3d6000fd5b5087600260008973ffffffffffffffffffffffffffffffffffffffff1673ffffffffffffffffffffffffffffffffffffffff1681526020019081526020016000208481548110613783577f4e487b7100000000000000000000000000000000000000000000000000000000600052603260045260246000fd5b9060005260206000209060100201600c0190805190602001906137a7929190614766565b506040518060400160405280600881526020017f6465636c696e6564000000000000000000000000000000000000000000000000815250600260008973ffffffffffffffffffffffffffffffffffffffff1673ffffffffffffffffffffffffffffffffffffffff1681526020019081526020016000208481548110613855577f4e487b7100000000000000000000000000000000000000000000000000000000600052603260045260246000fd5b9060005260206000209060100201600a019080519060200190613879929190614766565b505b5b505050505050505050505050565b6000600160003373ffffffffffffffffffffffffffffffffffffffff1673ffffffffffffffffffffffffffffffffffffffff16815260200190815260200160002060009054906101000a900460ff16905090565b6060600260003373ffffffffffffffffffffffffffffffffffffffff1673ffffffffffffffffffffffffffffffffffffffff168152602001908152602001600020805480602002602001604051908101604052809291908181526020016000905b82821015613f9e578382906000526020600020906010020160405180610220016040529081600082018054613973906159af565b80601f016020809104026020016040519081016040528092919081815260200182805461399f906159af565b80156139ec5780601f106139c1576101008083540402835291602001916139ec565b820191906000526020600020905b8154815290600101906020018083116139cf57829003601f168201915b505050505081526020016001820160009054906101000a900473ffffffffffffffffffffffffffffffffffffffff1673ffffffffffffffffffffffffffffffffffffffff1673ffffffffffffffffffffffffffffffffffffffff1681526020016002820160009054906101000a900473ffffffffffffffffffffffffffffffffffffffff1673ffffffffffffffffffffffffffffffffffffffff1673ffffffffffffffffffffffffffffffffffffffff1681526020016003820154815260200160048201548152602001600582018054613ac5906159af565b80601f0160208091040260200160405190810160405280929190818152602001828054613af1906159af565b8015613b3e5780601f10613b1357610100808354040283529160200191613b3e565b820191906000526020600020905b815481529060010190602001808311613b2157829003601f168201915b50505050508152602001600682018054613b57906159af565b80601f0160208091040260200160405190810160405280929190818152602001828054613b83906159af565b8015613bd05780601f10613ba557610100808354040283529160200191613bd0565b820191906000526020600020905b815481529060010190602001808311613bb357829003601f168201915b50505050508152602001600782018054613be9906159af565b80601f0160208091040260200160405190810160405280929190818152602001828054613c15906159af565b8015613c625780601f10613c3757610100808354040283529160200191613c62565b820191906000526020600020905b815481529060010190602001808311613c4557829003601f168201915b50505050508152602001600882018054613c7b906159af565b80601f0160208091040260200160405190810160405280929190818152602001828054613ca7906159af565b8015613cf45780601f10613cc957610100808354040283529160200191613cf4565b820191906000526020600020905b815481529060010190602001808311613cd757829003601f168201915b50505050508152602001600982018054613d0d906159af565b80601f0160208091040260200160405190810160405280929190818152602001828054613d39906159af565b8015613d865780601f10613d5b57610100808354040283529160200191613d86565b820191906000526020600020905b815481529060010190602001808311613d6957829003601f168201915b50505050508152602001600a82018054613d9f906159af565b80601f0160208091040260200160405190810160405280929190818152602001828054613dcb906159af565b8015613e185780601f10613ded57610100808354040283529160200191613e18565b820191906000526020600020905b815481529060010190602001808311613dfb57829003601f168201915b50505050508152602001600b82018054613e31906159af565b80601f0160208091040260200160405190810160405280929190818152602001828054613e5d906159af565b8015613eaa5780601f10613e7f57610100808354040283529160200191613eaa565b820191906000526020600020905b815481529060010190602001808311613e8d57829003601f168201915b50505050508152602001600c82018054613ec3906159af565b80601f0160208091040260200160405190810160405280929190818152602001828054613eef906159af565b8015613f3c5780601f10613f1157610100808354040283529160200191613f3c565b820191906000526020600020905b815481529060010190602001808311613f1f57829003601f168201915b50505050508152602001600d820160009054906101000a900460ff16151515158152602001600d820160019054906101000a900460ff16151515158152602001600e8201548152602001600f820154815250508152602001906001019061393f565b50505050905090565b6000613fb485858561429b565b90503373ffffffffffffffffffffffffffffffffffffffff16600260008673ffffffffffffffffffffffffffffffffffffffff1673ffffffffffffffffffffffffffffffffffffffff1681526020019081526020016000208281548110614044577f4e487b7100000000000000000000000000000000000000000000000000000000600052603260045260246000fd5b906000526020600020906010020160010160009054906101000a900473ffffffffffffffffffffffffffffffffffffffff1673ffffffffffffffffffffffffffffffffffffffff16146140cc576040517f08c379a00000000000000000000000000000000000000000000000000000000081526004016140c39061557d565b60405180910390fd5b81600260008673ffffffffffffffffffffffffffffffffffffffff1673ffffffffffffffffffffffffffffffffffffffff1681526020019081526020016000208281548110614144577f4e487b7100000000000000000000000000000000000000000000000000000000600052603260045260246000fd5b9060005260206000209060100201600b019080519060200190614168929190614766565b506040518060400160405280600481526020017f646f6e6500000000000000000000000000000000000000000000000000000000815250600260008673ffffffffffffffffffffffffffffffffffffffff1673ffffffffffffffffffffffffffffffffffffffff1681526020019081526020016000208281548110614216577f4e487b7100000000000000000000000000000000000000000000000000000000600052603260045260246000fd5b9060005260206000209060100201600a01908051906020019061423a929190614766565b505050505050565b6000816040516020016142559190615428565b604051602081830303815290604052805190602001208360405160200161427c9190615428565b6040516020818303038152906040528051906020012014905092915050565b6000805b600260008573ffffffffffffffffffffffffffffffffffffffff1673ffffffffffffffffffffffffffffffffffffffff168152602001908152602001600020805490508110156144b757614403600260008673ffffffffffffffffffffffffffffffffffffffff1673ffffffffffffffffffffffffffffffffffffffff1681526020019081526020016000208281548110614363577f4e487b7100000000000000000000000000000000000000000000000000000000600052603260045260246000fd5b9060005260206000209060100201600001805461437f906159af565b80601f01602080910402602001604051908101604052809291908181526020018280546143ab906159af565b80156143f85780601f106143cd576101008083540402835291602001916143f8565b820191906000526020600020905b8154815290600101906020018083116143db57829003601f168201915b505050505086614242565b8015614496575082600260008673ffffffffffffffffffffffffffffffffffffffff1673ffffffffffffffffffffffffffffffffffffffff1681526020019081526020016000208281548110614482577f4e487b7100000000000000000000000000000000000000000000000000000000600052603260045260246000fd5b9060005260206000209060100201600f0154145b156144a457809150506144b9565b80806144af90615a12565b91505061429f565b505b9392505050565b6000806000905060005b83518110156146b05760005b866000868481518110614512577f4e487b7100000000000000000000000000000000000000000000000000000000600052603260045260246000fd5b602002602001015173ffffffffffffffffffffffffffffffffffffffff1673ffffffffffffffffffffffffffffffffffffffff1681526020019081526020016000208054905081101561469c578573ffffffffffffffffffffffffffffffffffffffff168760008785815181106145b2577f4e487b7100000000000000000000000000000000000000000000000000000000600052603260045260246000fd5b602002602001015173ffffffffffffffffffffffffffffffffffffffff1673ffffffffffffffffffffffffffffffffffffffff168152602001908152602001600020828154811061462c577f4e487b7100000000000000000000000000000000000000000000000000000000600052603260045260246000fd5b906000526020600020906010020160010160009054906101000a900473ffffffffffffffffffffffffffffffffffffffff1673ffffffffffffffffffffffffffffffffffffffff16141561468957828061468590615a12565b9350505b808061469490615a12565b9150506144d6565b5080806146a890615a12565b9150506144ca565b50809150509392505050565b6000805b825181101561475a578373ffffffffffffffffffffffffffffffffffffffff16838281518110614719577f4e487b7100000000000000000000000000000000000000000000000000000000600052603260045260246000fd5b602002602001015173ffffffffffffffffffffffffffffffffffffffff161415614747576001915050614760565b808061475290615a12565b9150506146c0565b50600090505b92915050565b828054614772906159af565b90600052602060002090601f01602090048101928261479457600085556147db565b82601f106147ad57805160ff19168380011785556147db565b828001600101855582156147db579182015b828111156147da5782518255916020019190600101906147bf565b5b5090506147e891906148a0565b5090565b60405180610220016040528060608152602001600073ffffffffffffffffffffffffffffffffffffffff168152602001600073ffffffffffffffffffffffffffffffffffffffff1681526020016000815260200160008152602001606081526020016060815260200160608152602001606081526020016060815260200160608152602001606081526020016060815260200160001515815260200160001515815260200160008152602001600081525090565b5b808211156148b95760008160009055506001016148a1565b5090565b60006148d06148cb846157cd565b6157a8565b9050828152602081018484840111156148e857600080fd5b6148f384828561596d565b509392505050565b60008135905061490a81615ea8565b92915050565b60008135905061491f81615ebf565b92915050565b60008135905061493481615ed6565b92915050565b600082601f83011261494b57600080fd5b813561495b8482602086016148bd565b91505092915050565b60008135905061497381615eed565b92915050565b60006020828403121561498b57600080fd5b6000614999848285016148fb565b91505092915050565b600080600080608085870312156149b857600080fd5b600085013567ffffffffffffffff8111156149d257600080fd5b6149de8782880161493a565b94505060206149ef87828801614910565b9350506040614a0087828801614964565b9250506060614a1187828801614925565b91505092959194509250565b60008060008060808587031215614a3357600080fd5b600085013567ffffffffffffffff811115614a4d57600080fd5b614a598782880161493a565b9450506020614a6a878288016148fb565b9350506040614a7b87828801614964565b925050606085013567ffffffffffffffff811115614a9857600080fd5b614aa48782880161493a565b91505092959194509250565b60008060008060008060c08789031215614ac957600080fd5b600087013567ffffffffffffffff811115614ae357600080fd5b614aef89828a0161493a565b9650506020614b0089828a01614964565b955050604087013567ffffffffffffffff811115614b1d57600080fd5b614b2989828a0161493a565b9450506060614b3a89828a01614925565b935050608087013567ffffffffffffffff811115614b5757600080fd5b614b6389828a0161493a565b92505060a0614b7489828a01614910565b9150509295509295509295565b600080600080600080600060e0888a031215614b9c57600080fd5b600088013567ffffffffffffffff811115614bb657600080fd5b614bc28a828b0161493a565b9750506020614bd38a828b01614964565b965050604088013567ffffffffffffffff811115614bf057600080fd5b614bfc8a828b0161493a565b955050606088013567ffffffffffffffff811115614c1957600080fd5b614c258a828b0161493a565b945050608088013567ffffffffffffffff811115614c4257600080fd5b614c4e8a828b0161493a565b93505060a088013567ffffffffffffffff811115614c6b57600080fd5b614c778a828b0161493a565b92505060c088013567ffffffffffffffff811115614c9457600080fd5b614ca08a828b0161493a565b91505092959891949750929550565b60008060008060808587031215614cc557600080fd5b600085013567ffffffffffffffff811115614cdf57600080fd5b614ceb8782880161493a565b9450506020614cfc87828801614964565b9350506040614d0d87828801614964565b9250506060614d1e87828801614964565b91505092959194509250565b6000614d368383614d56565b60208301905092915050565b6000614d4e8383615265565b905092915050565b614d5f81615913565b82525050565b6000614d7082615833565b614d7a818561586e565b9350614d85836157fe565b8060005b83811015614db6578151614d9d8882614d2a565b9750614da883615854565b925050600181019050614d89565b5085935050505092915050565b6000614dce8261583e565b614dd8818561587f565b935083602082028501614dea8561580e565b8060005b85811015614e265784840389528151614e078582614d42565b9450614e1283615861565b925060208a01995050600181019050614dee565b50829750879550505050505092915050565b614e4181615937565b82525050565b614e5081615937565b82525050565b6000614e6182615849565b614e6b8185615890565b9350614e7b81856020860161597c565b614e8481615ae8565b840191505092915050565b6000614e9a82615849565b614ea481856158b2565b9350614eb481856020860161597c565b80840191505092915050565b60008154614ecd816159af565b614ed781866158a1565b94506001821660008114614ef25760018114614f0457614f37565b60ff1983168652602086019350614f37565b614f0d8561581e565b60005b83811015614f2f57815481890152600182019150602081019050614f10565b808801955050505b50505092915050565b6000614f4d600f836158a1565b9150614f5882615af9565b602082019050919050565b6000614f706007836158b2565b9150614f7b82615b22565b600782019050919050565b6000614f93600e836158a1565b9150614f9e82615b4b565b602082019050919050565b6000614fb6600c836158a1565b9150614fc182615b74565b602082019050919050565b6000614fd9600e836158a1565b9150614fe482615b9d565b602082019050919050565b6000614ffc6010836158a1565b915061500782615bc6565b602082019050919050565b600061501f6009836158a1565b915061502a82615bef565b602082019050919050565b60006150426008836158b2565b915061504d82615c18565b600882019050919050565b60006150656016836158a1565b915061507082615c41565b602082019050919050565b6000615088601c836158a1565b915061509382615c6a565b602082019050919050565b60006150ab6011836158a1565b91506150b682615c93565b602082019050919050565b60006150ce600e836158a1565b91506150d982615cbc565b602082019050919050565b60006150f16009836158a1565b91506150fc82615ce5565b602082019050919050565b6000615114601b836158a1565b915061511f82615d0e565b602082019050919050565b60006151376010836158a1565b915061514282615d37565b602082019050919050565b600061515a600a836158a1565b915061516582615d60565b602082019050919050565b600061517d6005836158b2565b915061518882615d89565b600582019050919050565b60006151a0600d836158a1565b91506151ab82615db2565b602082019050919050565b60006151c3600d836158a1565b91506151ce82615ddb565b602082019050919050565b60006151e66013836158a1565b91506151f182615e04565b602082019050919050565b6000615209600d836158a1565b915061521482615e2d565b602082019050919050565b600061522c6003836158a1565b915061523782615e56565b602082019050919050565b600061524f600e836158a1565b915061525a82615e7f565b602082019050919050565b60006102208301600083015184820360008601526152838282614e56565b91505060208301516152986020860182614d56565b5060408301516152ab6040860182614d56565b5060608301516152be606086018261540a565b5060808301516152d1608086018261540a565b5060a083015184820360a08601526152e98282614e56565b91505060c083015184820360c08601526153038282614e56565b91505060e083015184820360e086015261531d8282614e56565b9150506101008301518482036101008601526153398282614e56565b9150506101208301518482036101208601526153558282614e56565b9150506101408301518482036101408601526153718282614e56565b91505061016083015184820361016086015261538d8282614e56565b9150506101808301518482036101808601526153a98282614e56565b9150506101a08301516153c06101a0860182614e38565b506101c08301516153d56101c0860182614e38565b506101e08301516153ea6101e086018261540a565b506102008301516153ff61020086018261540a565b508091505092915050565b61541381615963565b82525050565b61542281615963565b82525050565b60006154348284614e8f565b915081905092915050565b600061544a82614f63565b9150819050919050565b600061545f82615035565b9150819050919050565b600061547482615170565b9150819050919050565b600060208201905081810360008301526154988184614d65565b905092915050565b600060208201905081810360008301526154ba8184614dc3565b905092915050565b60006020820190506154d76000830184614e47565b92915050565b600060208201905081810360008301526154f681614f40565b9050919050565b6000602082019050818103600083015261551681614f86565b9050919050565b6000602082019050818103600083015261553681614fa9565b9050919050565b6000602082019050818103600083015261555681614fcc565b9050919050565b6000602082019050818103600083015261557681614fef565b9050919050565b6000602082019050818103600083015261559681615012565b9050919050565b600060208201905081810360008301526155b681615058565b9050919050565b600060208201905081810360008301526155d68161507b565b9050919050565b600060208201905081810360008301526155f68161509e565b9050919050565b60006020820190508181036000830152615616816150c1565b9050919050565b60006020820190508181036000830152615636816150e4565b9050919050565b6000602082019050818103600083015261565681615107565b9050919050565b600060208201905081810360008301526156768161512a565b9050919050565b600060208201905081810360008301526156968161514d565b9050919050565b600060208201905081810360008301526156b681615193565b9050919050565b600060208201905081810360008301526156d6816151b6565b9050919050565b600060208201905081810360008301526156f6816151d9565b9050919050565b60006020820190508181036000830152615716816151fc565b9050919050565b600060208201905081810360008301526157368161521f565b9050919050565b6000602082019050818103600083015261575681615242565b9050919050565b60006020820190506157726000830184615419565b92915050565b600060408201905061578d6000830185615419565b818103602083015261579f8184614ec0565b90509392505050565b60006157b26157c3565b90506157be82826159e1565b919050565b6000604051905090565b600067ffffffffffffffff8211156157e8576157e7615ab9565b5b6157f182615ae8565b9050602081019050919050565b6000819050602082019050919050565b6000819050602082019050919050565b60008190508160005260206000209050919050565b600081519050919050565b600081519050919050565b600081519050919050565b6000602082019050919050565b6000602082019050919050565b600082825260208201905092915050565b600082825260208201905092915050565b600082825260208201905092915050565b600082825260208201905092915050565b600081905092915050565b60006158c882615963565b91506158d383615963565b9250827fffffffffffffffffffffffffffffffffffffffffffffffffffffffffffffffff0382111561590857615907615a5b565b5b828201905092915050565b600061591e82615943565b9050919050565b600061593082615943565b9050919050565b60008115159050919050565b600073ffffffffffffffffffffffffffffffffffffffff82169050919050565b6000819050919050565b82818337600083830152505050565b60005b8381101561599a57808201518184015260208101905061597f565b838111156159a9576000848401525b50505050565b600060028204905060018216806159c757607f821691505b602082108114156159db576159da615a8a565b5b50919050565b6159ea82615ae8565b810181811067ffffffffffffffff82111715615a0957615a08615ab9565b5b80604052505050565b6000615a1d82615963565b91507fffffffffffffffffffffffffffffffffffffffffffffffffffffffffffffffff821415615a5057615a4f615a5b565b5b600182019050919050565b7f4e487b7100000000000000000000000000000000000000000000000000000000600052601160045260246000fd5b7f4e487b7100000000000000000000000000000000000000000000000000000000600052602260045260246000fd5b7f4e487b7100000000000000000000000000000000000000000000000000000000600052604160045260246000fd5b6000601f19601f8301169050919050565b7f6f726465722e6e6f742e65786973740000000000000000000000000000000000600082015250565b7f5072656d69756d00000000000000000000000000000000000000000000000000600082015250565b7f706c616e2e6e6f742e6578697374000000000000000000000000000000000000600082015250565b7f6e6f742e637573746f6d65720000000000000000000000000000000000000000600082015250565b7f6e6f742e617574686f72697a6564000000000000000000000000000000000000600082015250565b7f6e6f2e706c616e732e646566696e656400000000000000000000000000000000600082015250565b7f6e6f742e6f776e65720000000000000000000000000000000000000000000000600082015250565b7f5374616e64617264000000000000000000000000000000000000000000000000600082015250565b7f6a6f622e616c72656164792e7265676973746572656400000000000000000000600082015250565b7f616c72656164792e6465636c696e65642e6f722e616363657074656400000000600082015250565b7f637573746f6d65722e6163636570746564000000000000000000000000000000600082015250565b7f6f726465722e6e6f742e646f6e65000000000000000000000000000000000000600082015250565b7f6e6f742e61646d696e0000000000000000000000000000000000000000000000600082015250565b7f637573746f6d65722e6e6f742e6465636c696e65642e6f726465720000000000600082015250565b7f616464726573732e69732e6f776e657200000000000000000000000000000000600082015250565b7f6261642e616374696f6e00000000000000000000000000000000000000000000600082015250565b7f4261736963000000000000000000000000000000000000000000000000000000600082015250565b7f616c72656164792e61646d696e00000000000000000000000000000000000000600082015250565b7f696e76616c69642e707269636500000000000000000000000000000000000000600082015250565b7f6a6f622e616c72656164792e6f72646572656400000000000000000000000000600082015250565b7f6a6f622e6e6f742e657869737400000000000000000000000000000000000000600082015250565b7f4e434f0000000000000000000000000000000000000000000000000000000000600082015250565b7f6f726465722e617070726f766564000000000000000000000000000000000000600082015250565b615eb181615913565b8114615ebc57600080fd5b50565b615ec881615925565b8114615ed357600080fd5b50565b615edf81615937565b8114615eea57600080fd5b50565b615ef681615963565b8114615f0157600080fd5b5056fea2646970667358221220d19e119717a6672bf1091c45d289e088ad7fa81a670a4873b32215afd7bfec5464736f6c63430008040033",
	"linkReferences": {},
	"deployedLinkReferences": {}
}